{"contracts/Governance.sol":{"Governance":{"abi":[{"inputs":[],"stateMutability":"nonpayable","type":"constructor"},{"anonymous":false,"inputs":[{"indexed":false,"internalType":"address","name":"account","type":"address"}],"name":"Paused","type":"event"},{"anonymous":false,"inputs":[{"indexed":true,"internalType":"uint256","name":"proposalId","type":"uint256"}],"name":"ProposalCancelled","type":"event"},{"anonymous":false,"inputs":[{"indexed":true,"internalType":"uint256","name":"proposalId","type":"uint256"},{"indexed":false,"internalType":"bool","name":"approved","type":"bool"}],"name":"ProposalClosed","type":"event"},{"anonymous":false,"inputs":[{"indexed":true,"internalType":"uint256","name":"id","type":"uint256"},{"indexed":true,"internalType":"address","name":"creator","type":"address"},{"indexed":false,"internalType":"string","name":"description","type":"string"}],"name":"ProposalCreated","type":"event"},{"anonymous":false,"inputs":[{"indexed":true,"internalType":"uint256","name":"proposalId","type":"uint256"}],"name":"ProposalExecuted","type":"event"},{"anonymous":false,"inputs":[{"indexed":true,"internalType":"uint256","name":"proposalId","type":"uint256"}],"name":"ProposalRejected","type":"event"},{"anonymous":false,"inputs":[{"indexed":true,"internalType":"bytes32","name":"role","type":"bytes32"},{"indexed":true,"internalType":"bytes32","name":"previousAdminRole","type":"bytes32"},{"indexed":true,"internalType":"bytes32","name":"newAdminRole","type":"bytes32"}],"name":"RoleAdminChanged","type":"event"},{"anonymous":false,"inputs":[{"indexed":true,"internalType":"address","name":"user","type":"address"},{"indexed":true,"internalType":"bytes32","name":"role","type":"bytes32"}],"name":"RoleAssigned","type":"event"},{"anonymous":false,"inputs":[{"indexed":true,"internalType":"bytes32","name":"role","type":"bytes32"},{"indexed":true,"internalType":"address","name":"account","type":"address"},{"indexed":true,"internalType":"address","name":"sender","type":"address"}],"name":"RoleGranted","type":"event"},{"anonymous":false,"inputs":[{"indexed":true,"internalType":"bytes32","name":"role","type":"bytes32"},{"indexed":true,"internalType":"address","name":"account","type":"address"},{"indexed":true,"internalType":"address","name":"sender","type":"address"}],"name":"RoleRevoked","type":"event"},{"anonymous":false,"inputs":[{"indexed":false,"internalType":"address","name":"account","type":"address"}],"name":"Unpaused","type":"event"},{"anonymous":false,"inputs":[{"indexed":true,"internalType":"uint256","name":"proposalId","type":"uint256"},{"indexed":true,"internalType":"address","name":"voter","type":"address"},{"indexed":false,"internalType":"bool","name":"support","type":"bool"}],"name":"Voted","type":"event"},{"inputs":[],"name":"AUDITOR_ROLE","outputs":[{"internalType":"bytes32","name":"","type":"bytes32"}],"stateMutability":"view","type":"function"},{"inputs":[],"name":"CREATOR_ROLE","outputs":[{"internalType":"bytes32","name":"","type":"bytes32"}],"stateMutability":"view","type":"function"},{"inputs":[],"name":"DEFAULT_ADMIN_ROLE","outputs":[{"internalType":"bytes32","name":"","type":"bytes32"}],"stateMutability":"view","type":"function"},{"inputs":[],"name":"GOVERNANCE_ROLE","outputs":[{"internalType":"bytes32","name":"","type":"bytes32"}],"stateMutability":"view","type":"function"},{"inputs":[],"name":"VOTER_ROLE","outputs":[{"internalType":"bytes32","name":"","type":"bytes32"}],"stateMutability":"view","type":"function"},{"inputs":[{"internalType":"address","name":"user","type":"address"},{"internalType":"bytes32","name":"role","type":"bytes32"}],"name":"assignRole","outputs":[],"stateMutability":"nonpayable","type":"function"},{"inputs":[{"internalType":"uint256","name":"proposalId","type":"uint256"}],"name":"cancelProposal","outputs":[],"stateMutability":"nonpayable","type":"function"},{"inputs":[{"internalType":"uint256","name":"proposalId","type":"uint256"}],"name":"closeProposal","outputs":[],"stateMutability":"nonpayable","type":"function"},{"inputs":[{"internalType":"uint256","name":"proposalId","type":"uint256"},{"internalType":"bytes32","name":"commitHash","type":"bytes32"}],"name":"commitVote","outputs":[],"stateMutability":"nonpayable","type":"function"},{"inputs":[{"internalType":"string","name":"description","type":"string"},{"internalType":"uint256","name":"duration","type":"uint256"},{"internalType":"uint256","name":"quorum","type":"uint256"},{"internalType":"bool","name":"openVoting","type":"bool"}],"name":"createProposal","outputs":[],"stateMutability":"nonpayable","type":"function"},{"inputs":[{"internalType":"uint256","name":"proposalId","type":"uint256"}],"name":"executeProposal","outputs":[],"stateMutability":"nonpayable","type":"function"},{"inputs":[],"name":"getAllProposals","outputs":[{"components":[{"internalType":"uint256","name":"id","type":"uint256"},{"internalType":"address","name":"creator","type":"address"},{"internalType":"string","name":"description","type":"string"},{"internalType":"uint256","name":"startTime","type":"uint256"},{"internalType":"uint256","name":"endTime","type":"uint256"},{"internalType":"uint256","name":"quorum","type":"uint256"},{"internalType":"bool","name":"openVoting","type":"bool"},{"internalType":"enum Governance.ProposalState","name":"state","type":"uint8"},{"internalType":"uint256","name":"votesFor","type":"uint256"},{"internalType":"uint256","name":"votesAgainst","type":"uint256"}],"internalType":"struct Governance.Proposal[]","name":"","type":"tuple[]"}],"stateMutability":"view","type":"function"},{"inputs":[{"internalType":"uint256","name":"proposalId","type":"uint256"}],"name":"getProposal","outputs":[{"components":[{"internalType":"uint256","name":"id","type":"uint256"},{"internalType":"address","name":"creator","type":"address"},{"internalType":"string","name":"description","type":"string"},{"internalType":"uint256","name":"startTime","type":"uint256"},{"internalType":"uint256","name":"endTime","type":"uint256"},{"internalType":"uint256","name":"quorum","type":"uint256"},{"internalType":"bool","name":"openVoting","type":"bool"},{"internalType":"enum Governance.ProposalState","name":"state","type":"uint8"},{"internalType":"uint256","name":"votesFor","type":"uint256"},{"internalType":"uint256","name":"votesAgainst","type":"uint256"}],"internalType":"struct Governance.Proposal","name":"","type":"tuple"}],"stateMutability":"view","type":"function"},{"inputs":[{"internalType":"bytes32","name":"role","type":"bytes32"}],"name":"getRoleAdmin","outputs":[{"internalType":"bytes32","name":"","type":"bytes32"}],"stateMutability":"view","type":"function"},{"inputs":[{"internalType":"bytes32","name":"role","type":"bytes32"},{"internalType":"address","name":"account","type":"address"}],"name":"grantRole","outputs":[],"stateMutability":"nonpayable","type":"function"},{"inputs":[{"internalType":"uint256","name":"","type":"uint256"},{"internalType":"address","name":"","type":"address"}],"name":"hasRevealed","outputs":[{"internalType":"bool","name":"","type":"bool"}],"stateMutability":"view","type":"function"},{"inputs":[{"internalType":"bytes32","name":"role","type":"bytes32"},{"internalType":"address","name":"account","type":"address"}],"name":"hasRole","outputs":[{"internalType":"bool","name":"","type":"bool"}],"stateMutability":"view","type":"function"},{"inputs":[{"internalType":"uint256","name":"","type":"uint256"},{"internalType":"address","name":"","type":"address"}],"name":"hasVoted","outputs":[{"internalType":"bool","name":"","type":"bool"}],"stateMutability":"view","type":"function"},{"inputs":[{"internalType":"uint256","name":"","type":"uint256"}],"name":"isRevealPhase","outputs":[{"internalType":"bool","name":"","type":"bool"}],"stateMutability":"view","type":"function"},{"inputs":[],"name":"pause","outputs":[],"stateMutability":"nonpayable","type":"function"},{"inputs":[],"name":"paused","outputs":[{"internalType":"bool","name":"","type":"bool"}],"stateMutability":"view","type":"function"},{"inputs":[],"name":"proposalCount","outputs":[{"internalType":"uint256","name":"","type":"uint256"}],"stateMutability":"view","type":"function"},{"inputs":[{"internalType":"uint256","name":"","type":"uint256"}],"name":"proposals","outputs":[{"internalType":"uint256","name":"id","type":"uint256"},{"internalType":"address","name":"creator","type":"address"},{"internalType":"string","name":"description","type":"string"},{"internalType":"uint256","name":"startTime","type":"uint256"},{"internalType":"uint256","name":"endTime","type":"uint256"},{"internalType":"uint256","name":"quorum","type":"uint256"},{"internalType":"bool","name":"openVoting","type":"bool"},{"internalType":"enum Governance.ProposalState","name":"state","type":"uint8"},{"internalType":"uint256","name":"votesFor","type":"uint256"},{"internalType":"uint256","name":"votesAgainst","type":"uint256"}],"stateMutability":"view","type":"function"},{"inputs":[{"internalType":"bytes32","name":"role","type":"bytes32"},{"internalType":"address","name":"account","type":"address"}],"name":"renounceRole","outputs":[],"stateMutability":"nonpayable","type":"function"},{"inputs":[{"internalType":"uint256","name":"proposalId","type":"uint256"},{"internalType":"bool","name":"support","type":"bool"},{"internalType":"string","name":"salt","type":"string"}],"name":"revealVote","outputs":[],"stateMutability":"nonpayable","type":"function"},{"inputs":[{"internalType":"bytes32","name":"role","type":"bytes32"},{"internalType":"address","name":"account","type":"address"}],"name":"revokeRole","outputs":[],"stateMutability":"nonpayable","type":"function"},{"inputs":[{"internalType":"uint256","name":"proposalId","type":"uint256"}],"name":"startRevealPhase","outputs":[],"stateMutability":"nonpayable","type":"function"},{"inputs":[{"internalType":"bytes4","name":"interfaceId","type":"bytes4"}],"name":"supportsInterface","outputs":[{"internalType":"bool","name":"","type":"bool"}],"stateMutability":"view","type":"function"},{"inputs":[],"name":"unpause","outputs":[],"stateMutability":"nonpayable","type":"function"},{"inputs":[{"internalType":"uint256","name":"proposalId","type":"uint256"},{"internalType":"bool","name":"support","type":"bool"}],"name":"vote","outputs":[],"stateMutability":"nonpayable","type":"function"},{"inputs":[{"internalType":"uint256","name":"","type":"uint256"},{"internalType":"address","name":"","type":"address"}],"name":"voteCommits","outputs":[{"internalType":"bytes32","name":"","type":"bytes32"}],"stateMutability":"view","type":"function"}],"evm":{"bytecode":{"linkReferences":{},"object":"60806040523480156200001157600080fd5b506001805460ff191681556002556200002c6000336200005e565b620000587f71840dc4906352362b0cdaf79870196c8e42acafade72d5d5a6d59291253ceb1336200005e565b6200010e565b6200006a82826200006e565b5050565b6000828152602081815260408083206001600160a01b038516845290915290205460ff166200006a576000828152602081815260408083206001600160a01b03851684529091529020805460ff19166001179055620000ca3390565b6001600160a01b0316816001600160a01b0316837f2f8788117e7eff1d82e926ec794901d17c78024a50270940304540a733656f0d60405160405180910390a45050565b6126e2806200011e6000396000f3fe608060405234801561001057600080fd5b50600436106101e55760003560e01c80638aeda25a1161010f578063c7f758a8116100a2578063da35c66411610071578063da35c66414610490578063e0a8f6f514610499578063f280b5e5146104ac578063f36c8f5c146104d757600080fd5b8063c7f758a814610435578063c9d27afe14610455578063cceb68f514610468578063d547741f1461047d57600080fd5b8063a1c6e1ec116100de578063a1c6e1ec146103e2578063a217fddf14610405578063a8d93dea1461040d578063a94015c81461042057600080fd5b80638aeda25a1461038257806391d14854146103a95780639da69180146103bc578063a00724ff146103cf57600080fd5b80632f2ff15d116101875780634385963211610156578063438596321461031a5780635c975abb146103485780636e1d616e146103535780638456cb591461037a57600080fd5b80632f2ff15d146102d957806336568abe146102ec5780633f4ba83a146102ff578063435d9a1f1461030757600080fd5b80630d61b519116101c35780630d61b5191461025457806316b5551d146102675780631d9486de14610295578063248a9ca3146102a857600080fd5b8063013cf08b146101ea57806301ffc9a71461021c5780630386a0161461023f575b600080fd5b6101fd6101f8366004611f23565b6104ec565b6040516102139a99989796959493929190611fc4565b60405180910390f35b61022f61022a366004612033565b6105d4565b6040519015158152602001610213565b61025261024d366004611f23565b61060b565b005b610252610262366004611f23565b610854565b61022f610275366004612079565b600860209081526000928352604080842090915290825290205460ff1681565b6102526102a33660046120a5565b610a06565b6102cb6102b6366004611f23565b60009081526020819052604090206001015490565b604051908152602001610213565b6102526102e7366004612079565b610a6b565b6102526102fa366004612079565b610a95565b610252610b0f565b610252610315366004612182565b610b32565b61022f610328366004612079565b600560209081526000928352604080842090915290825290205460ff1681565b60015460ff1661022f565b6102cb7f59a1c48e5837ad7a7f3dcedcbe129bf3249ec4fbf651fd4f5e2600ead39fe2f581565b610252610d17565b6102cb7f828634d95e775031b9ff576b159a8509d3053581a8c9c4d7d86899e0afcd882f81565b61022f6103b7366004612079565b610d37565b6102526103ca3660046121e3565b610d60565b6102526103dd366004612205565b610ec9565b61022f6103f0366004611f23565b60066020526000908152604090205460ff1681565b6102cb600081565b61025261041b366004611f23565b61120c565b6102cb60008051602061268d83398151915281565b610448610443366004611f23565b611308565b60405161021391906122fd565b610252610463366004612310565b611485565b6104706116aa565b6040516102139190612333565b61025261048b366004612079565b611897565b6102cb60035481565b6102526104a7366004611f23565b6118bc565b6102cb6104ba366004612079565b600760209081526000928352604080842090915290825290205481565b6102cb60008051602061266d83398151915281565b60046020526000908152604090208054600182015460028301805492936001600160a01b039092169261051e90612395565b80601f016020809104026020016040519081016040528092919081815260200182805461054a90612395565b80156105975780601f1061056c57610100808354040283529160200191610597565b820191906000526020600020905b81548152906001019060200180831161057a57829003601f168201915b505050600384015460048501546005860154600687015460078801546008909801549697939692955090935060ff8082169361010090920416918a565b60006001600160e01b03198216637965db0b60e01b148061060557506301ffc9a760e01b6001600160e01b03198316145b92915050565b60008051602061266d83398151915261062381611a3e565b61062b611a48565b600082815260046020526040812080549091036106635760405162461bcd60e51b815260040161065a906123c9565b60405180910390fd5b60016006820154610100900460ff16600581111561068357610683611f8c565b146106a05760405162461bcd60e51b815260040161065a906123f8565b60008381526006602052604090205460ff166106fe5760405162461bcd60e51b815260206004820152601960248201527f4465626520657374617220656e20666173652072657665616c00000000000000604482015260640161065a565b80600401544211806107275750806005015481600801548260070154610724919061243b565b10155b61078c5760405162461bcd60e51b815260206004820152603060248201527f4e6f207365207075656465206365727261723a207469656d706f206f2071756f60448201526f72756d20696e737566696369656e746560801b606482015260840161065a565b60068101805461ff001916610200179055600881015460078201546000911080156107ce57508160050154826008015483600701546107cb919061243b565b10155b9050837faffed5d901d9fbe9106721fa52653ede403c09699f9f810f6d378acc51fb50fa82604051610804911515815260200190565b60405180910390a28061084e5760068201805461ff00191661040017905560405184907fd92fba445edb3153b571e6df782d7a66fd0ce668519273670820ee3a86da0ef490600090a25b50505050565b60008051602061266d83398151915261086c81611a3e565b610874611a48565b61087c611a90565b600082815260046020526040812080549091036108ab5760405162461bcd60e51b815260040161065a906123c9565b60026006820154610100900460ff1660058111156108cb576108cb611f8c565b1461090f5760405162461bcd60e51b815260206004820152601460248201527350726f707565737461206e6f206365727261646160601b604482015260640161065a565b806008015481600701541161095e5760405162461bcd60e51b815260206004820152601560248201527450726f707565737461206e6f206170726f6261646160581b604482015260640161065a565b806005015481600801548260070154610977919061243b565b10156109bb5760405162461bcd60e51b815260206004820152601360248201527251756f72756d206e6f20616c63616e7a61646f60681b604482015260640161065a565b60068101805461ff00191661030017905560405183907f712ae1383f79ac853f8d882153778e0260ef8f03b504e2866e0593e04d2b291f90600090a250610a026001600255565b5050565b60008051602061266d833981519152610a1e81611a3e565b610a26611a48565b610a308284610a6b565b60405182906001600160a01b038516907f0666448aae9b9c8249fd8213a35a9c10218a0eac2fb39b96ed90c67214c7e76190600090a3505050565b600082815260208190526040902060010154610a8681611a3e565b610a908383611ae7565b505050565b6001600160a01b0381163314610b055760405162461bcd60e51b815260206004820152602f60248201527f416363657373436f6e74726f6c3a2063616e206f6e6c792072656e6f756e636560448201526e103937b632b9903337b91039b2b63360891b606482015260840161065a565b610a028282611b6b565b60008051602061266d833981519152610b2781611a3e565b610b2f611bd0565b50565b7f828634d95e775031b9ff576b159a8509d3053581a8c9c4d7d86899e0afcd882f610b5c81611a3e565b610b64611a48565b6000855111610bad5760405162461bcd60e51b81526020600482015260156024820152744465736372697063696f6e2072657175657269646160581b604482015260640161065a565b60008411610bfd5760405162461bcd60e51b815260206004820152601b60248201527f4475726163696f6e206465626520736572206d61796f72206120300000000000604482015260640161065a565b60008311610c4d5760405162461bcd60e51b815260206004820152601960248201527f51756f72756d206465626520736572206d61796f722061203000000000000000604482015260640161065a565b60038054906000610c5d8361244e565b909155505060035460008181526004602052604090208181556001810180546001600160a01b0319163317905560028101610c9888826124b5565b504260038201819055610cac90879061243b565b60048201556005810185905560068101805461ffff191685151561ff00191617610100179055604051339083907f7585f467599d0f008985f231af99293be388626ac16ca59505c2f8f88969cd6390610d06908b90612575565b60405180910390a350505050505050565b60008051602061266d833981519152610d2f81611a3e565b610b2f611c22565b6000918252602082815260408084206001600160a01b0393909316845291905290205460ff1690565b60008051602061268d833981519152610d7881611a3e565b610d80611a48565b60008381526004602052604081208054909103610daf5760405162461bcd60e51b815260040161065a906123c9565b60016006820154610100900460ff166005811115610dcf57610dcf611f8c565b14610dec5760405162461bcd60e51b815260040161065a906123f8565b60008481526006602052604090205460ff1615610e4b5760405162461bcd60e51b815260206004820152601960248201527f4661736520646520636f6d6d69742066696e616c697a61646100000000000000604482015260640161065a565b600084815260076020908152604080832033845290915290205415610eaa5760405162461bcd60e51b81526020600482015260156024820152741658481a185cc8195b9d9a58591bc818dbdb5b5a5d605a1b604482015260640161065a565b5050600091825260076020908152604080842033855290915290912055565b60008051602061268d833981519152610ee181611a3e565b610ee9611a48565b610ef1611a90565b60008481526004602052604081208054909103610f205760405162461bcd60e51b815260040161065a906123c9565b60016006820154610100900460ff166005811115610f4057610f40611f8c565b14610f5d5760405162461bcd60e51b815260040161065a906123f8565b60008581526006602052604090205460ff16610fb25760405162461bcd60e51b8152602060048201526014602482015273139bc8195cc819985cd9481919481c995d99585b60621b604482015260640161065a565b6000858152600760209081526040808320338452909152812054900361100a5760405162461bcd60e51b815260206004820152600d60248201526c139bc81a185e4818dbdb5b5a5d609a1b604482015260640161065a565b600085815260086020908152604080832033845290915290205460ff16156110665760405162461bcd60e51b815260206004820152600f60248201526e59612068617320726576656c61646f60881b604482015260640161065a565b600085815260056020908152604080832033845290915290205460ff16156110c05760405162461bcd60e51b815260206004820152600d60248201526c59612068617320766f7461646f60981b604482015260640161065a565b600084846040516020016110d5929190612588565b60408051601f19818403018152918152815160209283012060008981526007845282812033825290935291205490915081146111485760405162461bcd60e51b8152602060048201526012602482015271436f6d6d6974206e6f20636f696e6369646560701b604482015260640161065a565b6000868152600560209081526040808320338085529083528184208054600160ff1991821681179092558b865260088552838620928652919093529220805490921617905584156111af576007820180549060006111a58361244e565b91905055506111c7565b6008820180549060006111c18361244e565b91905055505b6040518515158152339087907ff2913dbe661ee2acc4a046d8fbcdc792373bda34c41c6086484b5345e5785e5f9060200160405180910390a3505061084e6001600255565b60008051602061266d83398151915261122481611a3e565b61122c611a48565b6000828152600460205260408120805490910361125b5760405162461bcd60e51b815260040161065a906123c9565b60016006820154610100900460ff16600581111561127b5761127b611f8c565b146112985760405162461bcd60e51b815260040161065a906123f8565b60008381526006602052604090205460ff16156112eb5760405162461bcd60e51b8152602060048201526011602482015270165848195b8819985cd9481c995d99585b607a1b604482015260640161065a565b50506000908152600660205260409020805460ff19166001179055565b611310611eb4565b600082815260046020526040812054900361133d5760405162461bcd60e51b815260040161065a906123c9565b6000828152600460209081526040918290208251610140810184528154815260018201546001600160a01b031692810192909252600281018054929391929184019161138890612395565b80601f01602080910402602001604051908101604052809291908181526020018280546113b490612395565b80156114015780601f106113d657610100808354040283529160200191611401565b820191906000526020600020905b8154815290600101906020018083116113e457829003601f168201915b505050918352505060038201546020820152600482015460408201526005808301546060830152600683015460ff8082161515608085015260a090930192610100909104169081111561145657611456611f8c565b600581111561146757611467611f8c565b81526007820154602082015260089091015460409091015292915050565b60008051602061268d83398151915261149d81611a3e565b6114a5611a48565b6114ad611a90565b600083815260046020526040812080549091036114dc5760405162461bcd60e51b815260040161065a906123c9565b60016006820154610100900460ff1660058111156114fc576114fc611f8c565b146115195760405162461bcd60e51b815260040161065a906123f8565b80600301544210156115645760405162461bcd60e51b8152602060048201526014602482015273566f746163696f6e206e6f20696e69636961646160601b604482015260640161065a565b80600401544211156115ae5760405162461bcd60e51b8152602060048201526013602482015272566f746163696f6e2066696e616c697a61646160681b604482015260640161065a565b600084815260056020908152604080832033845290915290205460ff16156116085760405162461bcd60e51b815260206004820152600d60248201526c59612068617320766f7461646f60981b604482015260640161065a565b60008481526005602090815260408083203384529091529020805460ff19166001179055821561164e576007810180549060006116448361244e565b9190505550611666565b6008810180549060006116608361244e565b91905055505b6040518315158152339085907ff2913dbe661ee2acc4a046d8fbcdc792373bda34c41c6086484b5345e5785e5f9060200160405180910390a350610a906001600255565b6060600060035467ffffffffffffffff8111156116c9576116c96120cf565b60405190808252806020026020018201604052801561170257816020015b6116ef611eb4565b8152602001906001900390816116e75790505b50905060005b600354811015611891576004600061172183600161243b565b815260208082019290925260409081016000208151610140810183528154815260018201546001600160a01b031693810193909352600281018054919284019161176a90612395565b80601f016020809104026020016040519081016040528092919081815260200182805461179690612395565b80156117e35780601f106117b8576101008083540402835291602001916117e3565b820191906000526020600020905b8154815290600101906020018083116117c657829003601f168201915b505050918352505060038201546020820152600482015460408201526005808301546060830152600683015460ff8082161515608085015260a090930192610100909104169081111561183857611838611f8c565b600581111561184957611849611f8c565b815260200160078201548152602001600882015481525050828281518110611873576118736125b3565b602002602001018190525080806118899061244e565b915050611708565b50919050565b6000828152602081905260409020600101546118b281611a3e565b610a908383611b6b565b6118c4611a48565b600081815260046020526040812080549091036118f35760405162461bcd60e51b815260040161065a906123c9565b60016006820154610100900460ff16600581111561191357611913611f8c565b146119725760405162461bcd60e51b815260206004820152602960248201527f536f6c6f2070726f7075657374617320616374697661732070756564656e2063604482015268616e63656c6172736560b81b606482015260840161065a565b61198a60008051602061266d83398151915233610d37565b806119a1575060018101546001600160a01b031633145b6119fe5760405162461bcd60e51b815260206004820152602860248201527f536f6c6f20676f7665726e616e6365206f2063726561646f722070756564652060448201526731b0b731b2b630b960c11b606482015260840161065a565b60068101805461ff00191661050017905560405182907f416e669c63d9a3a5e36ee7cc7e2104b8db28ccd286aa18966e98fa230c73b08c90600090a25050565b610b2f8133611c5d565b60015460ff1615611a8e5760405162461bcd60e51b815260206004820152601060248201526f14185d5cd8589b194e881c185d5cd95960821b604482015260640161065a565b565b6002805403611ae15760405162461bcd60e51b815260206004820152601f60248201527f5265656e7472616e637947756172643a207265656e7472616e742063616c6c00604482015260640161065a565b60028055565b611af18282610d37565b610a02576000828152602081815260408083206001600160a01b03851684529091529020805460ff19166001179055611b273390565b6001600160a01b0316816001600160a01b0316837f2f8788117e7eff1d82e926ec794901d17c78024a50270940304540a733656f0d60405160405180910390a45050565b611b758282610d37565b15610a02576000828152602081815260408083206001600160a01b0385168085529252808320805460ff1916905551339285917ff6391f5c32d9c69d2a47ea670b442974b53935d1edc7fd64eb21e047a839171b9190a45050565b611bd8611cb6565b6001805460ff191690557f5db9ee0a495bf2e6ff9c91a7834c1ba4fdd244a5e8aa4e537bd38aeae4b073aa335b6040516001600160a01b03909116815260200160405180910390a1565b611c2a611a48565b6001805460ff1916811790557f62e78cea01bee320cd4e420270b5ea74000d11b0c9f74754ebdbfc544b05a25833611c05565b611c678282610d37565b610a0257611c7481611cff565b611c7f836020611d11565b604051602001611c909291906125c9565b60408051601f198184030181529082905262461bcd60e51b825261065a91600401612575565b60015460ff16611a8e5760405162461bcd60e51b815260206004820152601460248201527314185d5cd8589b194e881b9bdd081c185d5cd95960621b604482015260640161065a565b60606106056001600160a01b03831660145b60606000611d2083600261263e565b611d2b90600261243b565b67ffffffffffffffff811115611d4357611d436120cf565b6040519080825280601f01601f191660200182016040528015611d6d576020820181803683370190505b509050600360fc1b81600081518110611d8857611d886125b3565b60200101906001600160f81b031916908160001a905350600f60fb1b81600181518110611db757611db76125b3565b60200101906001600160f81b031916908160001a9053506000611ddb84600261263e565b611de690600161243b565b90505b6001811115611e5e576f181899199a1a9b1b9c1cb0b131b232b360811b85600f1660108110611e1a57611e1a6125b3565b1a60f81b828281518110611e3057611e306125b3565b60200101906001600160f81b031916908160001a90535060049490941c93611e5781612655565b9050611de9565b508315611ead5760405162461bcd60e51b815260206004820181905260248201527f537472696e67733a20686578206c656e67746820696e73756666696369656e74604482015260640161065a565b9392505050565b6040518061014001604052806000815260200160006001600160a01b031681526020016060815260200160008152602001600081526020016000815260200160001515815260200160006005811115611f0f57611f0f611f8c565b815260200160008152602001600081525090565b600060208284031215611f3557600080fd5b5035919050565b60005b83811015611f57578181015183820152602001611f3f565b50506000910152565b60008151808452611f78816020860160208601611f3c565b601f01601f19169290920160200192915050565b634e487b7160e01b600052602160045260246000fd5b60068110611fc057634e487b7160e01b600052602160045260246000fd5b9052565b8a81526001600160a01b038a16602082015261014060408201819052600090611fef8382018c611f60565b9150508860608301528760808301528660a083015285151560c083015261201960e0830186611fa2565b610100820193909352610120015298975050505050505050565b60006020828403121561204557600080fd5b81356001600160e01b031981168114611ead57600080fd5b80356001600160a01b038116811461207457600080fd5b919050565b6000806040838503121561208c57600080fd5b8235915061209c6020840161205d565b90509250929050565b600080604083850312156120b857600080fd5b6120c18361205d565b946020939093013593505050565b634e487b7160e01b600052604160045260246000fd5b600082601f8301126120f657600080fd5b813567ffffffffffffffff80821115612111576121116120cf565b604051601f8301601f19908116603f01168101908282118183101715612139576121396120cf565b8160405283815286602085880101111561215257600080fd5b836020870160208301376000602085830101528094505050505092915050565b8035801515811461207457600080fd5b6000806000806080858703121561219857600080fd5b843567ffffffffffffffff8111156121af57600080fd5b6121bb878288016120e5565b94505060208501359250604085013591506121d860608601612172565b905092959194509250565b600080604083850312156121f657600080fd5b50508035926020909101359150565b60008060006060848603121561221a57600080fd5b8335925061222a60208501612172565b9150604084013567ffffffffffffffff81111561224657600080fd5b612252868287016120e5565b9150509250925092565b600061014082518452602083015161227f60208601826001600160a01b03169052565b50604083015181604086015261229782860182611f60565b915050606083015160608501526080830151608085015260a083015160a085015260c08301516122cb60c086018215159052565b5060e08301516122de60e0860182611fa2565b5061010083810151908501526101209283015192909301919091525090565b602081526000611ead602083018461225c565b6000806040838503121561232357600080fd5b8235915061209c60208401612172565b6000602080830181845280855180835260408601915060408160051b870101925083870160005b8281101561238857603f1988860301845261237685835161225c565b9450928501929085019060010161235a565b5092979650505050505050565b600181811c908216806123a957607f821691505b60208210810361189157634e487b7160e01b600052602260045260246000fd5b60208082526015908201527450726f70756573746120696e6578697374656e746560581b604082015260600190565b60208082526013908201527250726f707565737461206e6f2061637469766160681b604082015260600190565b634e487b7160e01b600052601160045260246000fd5b8082018082111561060557610605612425565b60006001820161246057612460612425565b5060010190565b601f821115610a9057600081815260208120601f850160051c8101602086101561248e5750805b601f850160051c820191505b818110156124ad5782815560010161249a565b505050505050565b815167ffffffffffffffff8111156124cf576124cf6120cf565b6124e3816124dd8454612395565b84612467565b602080601f83116001811461251857600084156125005750858301515b600019600386901b1c1916600185901b1785556124ad565b600085815260208120601f198616915b8281101561254757888601518255948401946001909101908401612528565b50858210156125655787850151600019600388901b60f8161c191681555b5050505050600190811b01905550565b602081526000611ead6020830184611f60565b82151560f81b8152600082516125a5816001850160208701611f3c565b919091016001019392505050565b634e487b7160e01b600052603260045260246000fd5b7f416363657373436f6e74726f6c3a206163636f756e7420000000000000000000815260008351612601816017850160208801611f3c565b7001034b99036b4b9b9b4b733903937b6329607d1b6017918401918201528351612632816028840160208801611f3c565b01602801949350505050565b808202811582820484141761060557610605612425565b60008161266457612664612425565b50600019019056fe71840dc4906352362b0cdaf79870196c8e42acafade72d5d5a6d59291253ceb172c3eec1760bf69946625c2d4fb8e44e2c806345041960b434674fb9ab3976cfa264697066735822122021cbed0483b0aaed339dfd8cb384fff9d20873b1afda753875dac238790b348764736f6c63430008140033","opcodes":"PUSH1 0x80 PUSH1 0x40 MSTORE CALLVALUE DUP1 ISZERO PUSH3 0x11 JUMPI PUSH1 0x0 DUP1 REVERT JUMPDEST POP PUSH1 0x1 DUP1 SLOAD PUSH1 0xFF NOT AND DUP2 SSTORE PUSH1 0x2 SSTORE PUSH3 0x2C PUSH1 0x0 CALLER PUSH3 0x5E JUMP JUMPDEST PUSH3 0x58 PUSH32 0x71840DC4906352362B0CDAF79870196C8E42ACAFADE72D5D5A6D59291253CEB1 CALLER PUSH3 0x5E JUMP JUMPDEST PUSH3 0x10E JUMP JUMPDEST PUSH3 0x6A DUP3 DUP3 PUSH3 0x6E JUMP JUMPDEST POP POP JUMP JUMPDEST PUSH1 0x0 DUP3 DUP2 MSTORE PUSH1 0x20 DUP2 DUP2 MSTORE PUSH1 0x40 DUP1 DUP4 KECCAK256 PUSH1 0x1 PUSH1 0x1 PUSH1 0xA0 SHL SUB DUP6 AND DUP5 MSTORE SWAP1 SWAP2 MSTORE SWAP1 KECCAK256 SLOAD PUSH1 0xFF AND PUSH3 0x6A JUMPI PUSH1 0x0 DUP3 DUP2 MSTORE PUSH1 0x20 DUP2 DUP2 MSTORE PUSH1 0x40 DUP1 DUP4 KECCAK256 PUSH1 0x1 PUSH1 0x1 PUSH1 0xA0 SHL SUB DUP6 AND DUP5 MSTORE SWAP1 SWAP2 MSTORE SWAP1 KECCAK256 DUP1 SLOAD PUSH1 0xFF NOT AND PUSH1 0x1 OR SWAP1 SSTORE PUSH3 0xCA CALLER SWAP1 JUMP JUMPDEST PUSH1 0x1 PUSH1 0x1 PUSH1 0xA0 SHL SUB AND DUP2 PUSH1 0x1 PUSH1 0x1 PUSH1 0xA0 SHL SUB AND DUP4 PUSH32 0x2F8788117E7EFF1D82E926EC794901D17C78024A50270940304540A733656F0D PUSH1 0x40 MLOAD PUSH1 0x40 MLOAD DUP1 SWAP2 SUB SWAP1 LOG4 POP POP JUMP JUMPDEST PUSH2 0x26E2 DUP1 PUSH3 0x11E PUSH1 0x0 CODECOPY PUSH1 0x0 RETURN INVALID PUSH1 0x80 PUSH1 0x40 MSTORE CALLVALUE DUP1 ISZERO PUSH2 0x10 JUMPI PUSH1 0x0 DUP1 REVERT JUMPDEST POP PUSH1 0x4 CALLDATASIZE LT PUSH2 0x1E5 JUMPI PUSH1 0x0 CALLDATALOAD PUSH1 0xE0 SHR DUP1 PUSH4 0x8AEDA25A GT PUSH2 0x10F JUMPI DUP1 PUSH4 0xC7F758A8 GT PUSH2 0xA2 JUMPI DUP1 PUSH4 0xDA35C664 GT PUSH2 0x71 JUMPI DUP1 PUSH4 0xDA35C664 EQ PUSH2 0x490 JUMPI DUP1 PUSH4 0xE0A8F6F5 EQ PUSH2 0x499 JUMPI DUP1 PUSH4 0xF280B5E5 EQ PUSH2 0x4AC JUMPI DUP1 PUSH4 0xF36C8F5C EQ PUSH2 0x4D7 JUMPI PUSH1 0x0 DUP1 REVERT JUMPDEST DUP1 PUSH4 0xC7F758A8 EQ PUSH2 0x435 JUMPI DUP1 PUSH4 0xC9D27AFE EQ PUSH2 0x455 JUMPI DUP1 PUSH4 0xCCEB68F5 EQ PUSH2 0x468 JUMPI DUP1 PUSH4 0xD547741F EQ PUSH2 0x47D JUMPI PUSH1 0x0 DUP1 REVERT JUMPDEST DUP1 PUSH4 0xA1C6E1EC GT PUSH2 0xDE JUMPI DUP1 PUSH4 0xA1C6E1EC EQ PUSH2 0x3E2 JUMPI DUP1 PUSH4 0xA217FDDF EQ PUSH2 0x405 JUMPI DUP1 PUSH4 0xA8D93DEA EQ PUSH2 0x40D JUMPI DUP1 PUSH4 0xA94015C8 EQ PUSH2 0x420 JUMPI PUSH1 0x0 DUP1 REVERT JUMPDEST DUP1 PUSH4 0x8AEDA25A EQ PUSH2 0x382 JUMPI DUP1 PUSH4 0x91D14854 EQ PUSH2 0x3A9 JUMPI DUP1 PUSH4 0x9DA69180 EQ PUSH2 0x3BC JUMPI DUP1 PUSH4 0xA00724FF EQ PUSH2 0x3CF JUMPI PUSH1 0x0 DUP1 REVERT JUMPDEST DUP1 PUSH4 0x2F2FF15D GT PUSH2 0x187 JUMPI DUP1 PUSH4 0x43859632 GT PUSH2 0x156 JUMPI DUP1 PUSH4 0x43859632 EQ PUSH2 0x31A JUMPI DUP1 PUSH4 0x5C975ABB EQ PUSH2 0x348 JUMPI DUP1 PUSH4 0x6E1D616E EQ PUSH2 0x353 JUMPI DUP1 PUSH4 0x8456CB59 EQ PUSH2 0x37A JUMPI PUSH1 0x0 DUP1 REVERT JUMPDEST DUP1 PUSH4 0x2F2FF15D EQ PUSH2 0x2D9 JUMPI DUP1 PUSH4 0x36568ABE EQ PUSH2 0x2EC JUMPI DUP1 PUSH4 0x3F4BA83A EQ PUSH2 0x2FF JUMPI DUP1 PUSH4 0x435D9A1F EQ PUSH2 0x307 JUMPI PUSH1 0x0 DUP1 REVERT JUMPDEST DUP1 PUSH4 0xD61B519 GT PUSH2 0x1C3 JUMPI DUP1 PUSH4 0xD61B519 EQ PUSH2 0x254 JUMPI DUP1 PUSH4 0x16B5551D EQ PUSH2 0x267 JUMPI DUP1 PUSH4 0x1D9486DE EQ PUSH2 0x295 JUMPI DUP1 PUSH4 0x248A9CA3 EQ PUSH2 0x2A8 JUMPI PUSH1 0x0 DUP1 REVERT JUMPDEST DUP1 PUSH4 0x13CF08B EQ PUSH2 0x1EA JUMPI DUP1 PUSH4 0x1FFC9A7 EQ PUSH2 0x21C JUMPI DUP1 PUSH4 0x386A016 EQ PUSH2 0x23F JUMPI JUMPDEST PUSH1 0x0 DUP1 REVERT JUMPDEST PUSH2 0x1FD PUSH2 0x1F8 CALLDATASIZE PUSH1 0x4 PUSH2 0x1F23 JUMP JUMPDEST PUSH2 0x4EC JUMP JUMPDEST PUSH1 0x40 MLOAD PUSH2 0x213 SWAP11 SWAP10 SWAP9 SWAP8 SWAP7 SWAP6 SWAP5 SWAP4 SWAP3 SWAP2 SWAP1 PUSH2 0x1FC4 JUMP JUMPDEST PUSH1 0x40 MLOAD DUP1 SWAP2 SUB SWAP1 RETURN JUMPDEST PUSH2 0x22F PUSH2 0x22A CALLDATASIZE PUSH1 0x4 PUSH2 0x2033 JUMP JUMPDEST PUSH2 0x5D4 JUMP JUMPDEST PUSH1 0x40 MLOAD SWAP1 ISZERO ISZERO DUP2 MSTORE PUSH1 0x20 ADD PUSH2 0x213 JUMP JUMPDEST PUSH2 0x252 PUSH2 0x24D CALLDATASIZE PUSH1 0x4 PUSH2 0x1F23 JUMP JUMPDEST PUSH2 0x60B JUMP JUMPDEST STOP JUMPDEST PUSH2 0x252 PUSH2 0x262 CALLDATASIZE PUSH1 0x4 PUSH2 0x1F23 JUMP JUMPDEST PUSH2 0x854 JUMP JUMPDEST PUSH2 0x22F PUSH2 0x275 CALLDATASIZE PUSH1 0x4 PUSH2 0x2079 JUMP JUMPDEST PUSH1 0x8 PUSH1 0x20 SWAP1 DUP2 MSTORE PUSH1 0x0 SWAP3 DUP4 MSTORE PUSH1 0x40 DUP1 DUP5 KECCAK256 SWAP1 SWAP2 MSTORE SWAP1 DUP3 MSTORE SWAP1 KECCAK256 SLOAD PUSH1 0xFF AND DUP2 JUMP JUMPDEST PUSH2 0x252 PUSH2 0x2A3 CALLDATASIZE PUSH1 0x4 PUSH2 0x20A5 JUMP JUMPDEST PUSH2 0xA06 JUMP JUMPDEST PUSH2 0x2CB PUSH2 0x2B6 CALLDATASIZE PUSH1 0x4 PUSH2 0x1F23 JUMP JUMPDEST PUSH1 0x0 SWAP1 DUP2 MSTORE PUSH1 0x20 DUP2 SWAP1 MSTORE PUSH1 0x40 SWAP1 KECCAK256 PUSH1 0x1 ADD SLOAD SWAP1 JUMP JUMPDEST PUSH1 0x40 MLOAD SWAP1 DUP2 MSTORE PUSH1 0x20 ADD PUSH2 0x213 JUMP JUMPDEST PUSH2 0x252 PUSH2 0x2E7 CALLDATASIZE PUSH1 0x4 PUSH2 0x2079 JUMP JUMPDEST PUSH2 0xA6B JUMP JUMPDEST PUSH2 0x252 PUSH2 0x2FA CALLDATASIZE PUSH1 0x4 PUSH2 0x2079 JUMP JUMPDEST PUSH2 0xA95 JUMP JUMPDEST PUSH2 0x252 PUSH2 0xB0F JUMP JUMPDEST PUSH2 0x252 PUSH2 0x315 CALLDATASIZE PUSH1 0x4 PUSH2 0x2182 JUMP JUMPDEST PUSH2 0xB32 JUMP JUMPDEST PUSH2 0x22F PUSH2 0x328 CALLDATASIZE PUSH1 0x4 PUSH2 0x2079 JUMP JUMPDEST PUSH1 0x5 PUSH1 0x20 SWAP1 DUP2 MSTORE PUSH1 0x0 SWAP3 DUP4 MSTORE PUSH1 0x40 DUP1 DUP5 KECCAK256 SWAP1 SWAP2 MSTORE SWAP1 DUP3 MSTORE SWAP1 KECCAK256 SLOAD PUSH1 0xFF AND DUP2 JUMP JUMPDEST PUSH1 0x1 SLOAD PUSH1 0xFF AND PUSH2 0x22F JUMP JUMPDEST PUSH2 0x2CB PUSH32 0x59A1C48E5837AD7A7F3DCEDCBE129BF3249EC4FBF651FD4F5E2600EAD39FE2F5 DUP2 JUMP JUMPDEST PUSH2 0x252 PUSH2 0xD17 JUMP JUMPDEST PUSH2 0x2CB PUSH32 0x828634D95E775031B9FF576B159A8509D3053581A8C9C4D7D86899E0AFCD882F DUP2 JUMP JUMPDEST PUSH2 0x22F PUSH2 0x3B7 CALLDATASIZE PUSH1 0x4 PUSH2 0x2079 JUMP JUMPDEST PUSH2 0xD37 JUMP JUMPDEST PUSH2 0x252 PUSH2 0x3CA CALLDATASIZE PUSH1 0x4 PUSH2 0x21E3 JUMP JUMPDEST PUSH2 0xD60 JUMP JUMPDEST PUSH2 0x252 PUSH2 0x3DD CALLDATASIZE PUSH1 0x4 PUSH2 0x2205 JUMP JUMPDEST PUSH2 0xEC9 JUMP JUMPDEST PUSH2 0x22F PUSH2 0x3F0 CALLDATASIZE PUSH1 0x4 PUSH2 0x1F23 JUMP JUMPDEST PUSH1 0x6 PUSH1 0x20 MSTORE PUSH1 0x0 SWAP1 DUP2 MSTORE PUSH1 0x40 SWAP1 KECCAK256 SLOAD PUSH1 0xFF AND DUP2 JUMP JUMPDEST PUSH2 0x2CB PUSH1 0x0 DUP2 JUMP JUMPDEST PUSH2 0x252 PUSH2 0x41B CALLDATASIZE PUSH1 0x4 PUSH2 0x1F23 JUMP JUMPDEST PUSH2 0x120C JUMP JUMPDEST PUSH2 0x2CB PUSH1 0x0 DUP1 MLOAD PUSH1 0x20 PUSH2 0x268D DUP4 CODECOPY DUP2 MLOAD SWAP2 MSTORE DUP2 JUMP JUMPDEST PUSH2 0x448 PUSH2 0x443 CALLDATASIZE PUSH1 0x4 PUSH2 0x1F23 JUMP JUMPDEST PUSH2 0x1308 JUMP JUMPDEST PUSH1 0x40 MLOAD PUSH2 0x213 SWAP2 SWAP1 PUSH2 0x22FD JUMP JUMPDEST PUSH2 0x252 PUSH2 0x463 CALLDATASIZE PUSH1 0x4 PUSH2 0x2310 JUMP JUMPDEST PUSH2 0x1485 JUMP JUMPDEST PUSH2 0x470 PUSH2 0x16AA JUMP JUMPDEST PUSH1 0x40 MLOAD PUSH2 0x213 SWAP2 SWAP1 PUSH2 0x2333 JUMP JUMPDEST PUSH2 0x252 PUSH2 0x48B CALLDATASIZE PUSH1 0x4 PUSH2 0x2079 JUMP JUMPDEST PUSH2 0x1897 JUMP JUMPDEST PUSH2 0x2CB PUSH1 0x3 SLOAD DUP2 JUMP JUMPDEST PUSH2 0x252 PUSH2 0x4A7 CALLDATASIZE PUSH1 0x4 PUSH2 0x1F23 JUMP JUMPDEST PUSH2 0x18BC JUMP JUMPDEST PUSH2 0x2CB PUSH2 0x4BA CALLDATASIZE PUSH1 0x4 PUSH2 0x2079 JUMP JUMPDEST PUSH1 0x7 PUSH1 0x20 SWAP1 DUP2 MSTORE PUSH1 0x0 SWAP3 DUP4 MSTORE PUSH1 0x40 DUP1 DUP5 KECCAK256 SWAP1 SWAP2 MSTORE SWAP1 DUP3 MSTORE SWAP1 KECCAK256 SLOAD DUP2 JUMP JUMPDEST PUSH2 0x2CB PUSH1 0x0 DUP1 MLOAD PUSH1 0x20 PUSH2 0x266D DUP4 CODECOPY DUP2 MLOAD SWAP2 MSTORE DUP2 JUMP JUMPDEST PUSH1 0x4 PUSH1 0x20 MSTORE PUSH1 0x0 SWAP1 DUP2 MSTORE PUSH1 0x40 SWAP1 KECCAK256 DUP1 SLOAD PUSH1 0x1 DUP3 ADD SLOAD PUSH1 0x2 DUP4 ADD DUP1 SLOAD SWAP3 SWAP4 PUSH1 0x1 PUSH1 0x1 PUSH1 0xA0 SHL SUB SWAP1 SWAP3 AND SWAP3 PUSH2 0x51E SWAP1 PUSH2 0x2395 JUMP JUMPDEST DUP1 PUSH1 0x1F ADD PUSH1 0x20 DUP1 SWAP2 DIV MUL PUSH1 0x20 ADD PUSH1 0x40 MLOAD SWAP1 DUP2 ADD PUSH1 0x40 MSTORE DUP1 SWAP3 SWAP2 SWAP1 DUP2 DUP2 MSTORE PUSH1 0x20 ADD DUP3 DUP1 SLOAD PUSH2 0x54A SWAP1 PUSH2 0x2395 JUMP JUMPDEST DUP1 ISZERO PUSH2 0x597 JUMPI DUP1 PUSH1 0x1F LT PUSH2 0x56C JUMPI PUSH2 0x100 DUP1 DUP4 SLOAD DIV MUL DUP4 MSTORE SWAP2 PUSH1 0x20 ADD SWAP2 PUSH2 0x597 JUMP JUMPDEST DUP3 ADD SWAP2 SWAP1 PUSH1 0x0 MSTORE PUSH1 0x20 PUSH1 0x0 KECCAK256 SWAP1 JUMPDEST DUP2 SLOAD DUP2 MSTORE SWAP1 PUSH1 0x1 ADD SWAP1 PUSH1 0x20 ADD DUP1 DUP4 GT PUSH2 0x57A JUMPI DUP3 SWAP1 SUB PUSH1 0x1F AND DUP3 ADD SWAP2 JUMPDEST POP POP POP PUSH1 0x3 DUP5 ADD SLOAD PUSH1 0x4 DUP6 ADD SLOAD PUSH1 0x5 DUP7 ADD SLOAD PUSH1 0x6 DUP8 ADD SLOAD PUSH1 0x7 DUP9 ADD SLOAD PUSH1 0x8 SWAP1 SWAP9 ADD SLOAD SWAP7 SWAP8 SWAP4 SWAP7 SWAP3 SWAP6 POP SWAP1 SWAP4 POP PUSH1 0xFF DUP1 DUP3 AND SWAP4 PUSH2 0x100 SWAP1 SWAP3 DIV AND SWAP2 DUP11 JUMP JUMPDEST PUSH1 0x0 PUSH1 0x1 PUSH1 0x1 PUSH1 0xE0 SHL SUB NOT DUP3 AND PUSH4 0x7965DB0B PUSH1 0xE0 SHL EQ DUP1 PUSH2 0x605 JUMPI POP PUSH4 0x1FFC9A7 PUSH1 0xE0 SHL PUSH1 0x1 PUSH1 0x1 PUSH1 0xE0 SHL SUB NOT DUP4 AND EQ JUMPDEST SWAP3 SWAP2 POP POP JUMP JUMPDEST PUSH1 0x0 DUP1 MLOAD PUSH1 0x20 PUSH2 0x266D DUP4 CODECOPY DUP2 MLOAD SWAP2 MSTORE PUSH2 0x623 DUP2 PUSH2 0x1A3E JUMP JUMPDEST PUSH2 0x62B PUSH2 0x1A48 JUMP JUMPDEST PUSH1 0x0 DUP3 DUP2 MSTORE PUSH1 0x4 PUSH1 0x20 MSTORE PUSH1 0x40 DUP2 KECCAK256 DUP1 SLOAD SWAP1 SWAP2 SUB PUSH2 0x663 JUMPI PUSH1 0x40 MLOAD PUSH3 0x461BCD PUSH1 0xE5 SHL DUP2 MSTORE PUSH1 0x4 ADD PUSH2 0x65A SWAP1 PUSH2 0x23C9 JUMP JUMPDEST PUSH1 0x40 MLOAD DUP1 SWAP2 SUB SWAP1 REVERT JUMPDEST PUSH1 0x1 PUSH1 0x6 DUP3 ADD SLOAD PUSH2 0x100 SWAP1 DIV PUSH1 0xFF AND PUSH1 0x5 DUP2 GT ISZERO PUSH2 0x683 JUMPI PUSH2 0x683 PUSH2 0x1F8C JUMP JUMPDEST EQ PUSH2 0x6A0 JUMPI PUSH1 0x40 MLOAD PUSH3 0x461BCD PUSH1 0xE5 SHL DUP2 MSTORE PUSH1 0x4 ADD PUSH2 0x65A SWAP1 PUSH2 0x23F8 JUMP JUMPDEST PUSH1 0x0 DUP4 DUP2 MSTORE PUSH1 0x6 PUSH1 0x20 MSTORE PUSH1 0x40 SWAP1 KECCAK256 SLOAD PUSH1 0xFF AND PUSH2 0x6FE JUMPI PUSH1 0x40 MLOAD PUSH3 0x461BCD PUSH1 0xE5 SHL DUP2 MSTORE PUSH1 0x20 PUSH1 0x4 DUP3 ADD MSTORE PUSH1 0x19 PUSH1 0x24 DUP3 ADD MSTORE PUSH32 0x4465626520657374617220656E20666173652072657665616C00000000000000 PUSH1 0x44 DUP3 ADD MSTORE PUSH1 0x64 ADD PUSH2 0x65A JUMP JUMPDEST DUP1 PUSH1 0x4 ADD SLOAD TIMESTAMP GT DUP1 PUSH2 0x727 JUMPI POP DUP1 PUSH1 0x5 ADD SLOAD DUP2 PUSH1 0x8 ADD SLOAD DUP3 PUSH1 0x7 ADD SLOAD PUSH2 0x724 SWAP2 SWAP1 PUSH2 0x243B JUMP JUMPDEST LT ISZERO JUMPDEST PUSH2 0x78C JUMPI PUSH1 0x40 MLOAD PUSH3 0x461BCD PUSH1 0xE5 SHL DUP2 MSTORE PUSH1 0x20 PUSH1 0x4 DUP3 ADD MSTORE PUSH1 0x30 PUSH1 0x24 DUP3 ADD MSTORE PUSH32 0x4E6F207365207075656465206365727261723A207469656D706F206F2071756F PUSH1 0x44 DUP3 ADD MSTORE PUSH16 0x72756D20696E737566696369656E7465 PUSH1 0x80 SHL PUSH1 0x64 DUP3 ADD MSTORE PUSH1 0x84 ADD PUSH2 0x65A JUMP JUMPDEST PUSH1 0x6 DUP2 ADD DUP1 SLOAD PUSH2 0xFF00 NOT AND PUSH2 0x200 OR SWAP1 SSTORE PUSH1 0x8 DUP2 ADD SLOAD PUSH1 0x7 DUP3 ADD SLOAD PUSH1 0x0 SWAP2 LT DUP1 ISZERO PUSH2 0x7CE JUMPI POP DUP2 PUSH1 0x5 ADD SLOAD DUP3 PUSH1 0x8 ADD SLOAD DUP4 PUSH1 0x7 ADD SLOAD PUSH2 0x7CB SWAP2 SWAP1 PUSH2 0x243B JUMP JUMPDEST LT ISZERO JUMPDEST SWAP1 POP DUP4 PUSH32 0xAFFED5D901D9FBE9106721FA52653EDE403C09699F9F810F6D378ACC51FB50FA DUP3 PUSH1 0x40 MLOAD PUSH2 0x804 SWAP2 ISZERO ISZERO DUP2 MSTORE PUSH1 0x20 ADD SWAP1 JUMP JUMPDEST PUSH1 0x40 MLOAD DUP1 SWAP2 SUB SWAP1 LOG2 DUP1 PUSH2 0x84E JUMPI PUSH1 0x6 DUP3 ADD DUP1 SLOAD PUSH2 0xFF00 NOT AND PUSH2 0x400 OR SWAP1 SSTORE PUSH1 0x40 MLOAD DUP5 SWAP1 PUSH32 0xD92FBA445EDB3153B571E6DF782D7A66FD0CE668519273670820EE3A86DA0EF4 SWAP1 PUSH1 0x0 SWAP1 LOG2 JUMPDEST POP POP POP POP JUMP JUMPDEST PUSH1 0x0 DUP1 MLOAD PUSH1 0x20 PUSH2 0x266D DUP4 CODECOPY DUP2 MLOAD SWAP2 MSTORE PUSH2 0x86C DUP2 PUSH2 0x1A3E JUMP JUMPDEST PUSH2 0x874 PUSH2 0x1A48 JUMP JUMPDEST PUSH2 0x87C PUSH2 0x1A90 JUMP JUMPDEST PUSH1 0x0 DUP3 DUP2 MSTORE PUSH1 0x4 PUSH1 0x20 MSTORE PUSH1 0x40 DUP2 KECCAK256 DUP1 SLOAD SWAP1 SWAP2 SUB PUSH2 0x8AB JUMPI PUSH1 0x40 MLOAD PUSH3 0x461BCD PUSH1 0xE5 SHL DUP2 MSTORE PUSH1 0x4 ADD PUSH2 0x65A SWAP1 PUSH2 0x23C9 JUMP JUMPDEST PUSH1 0x2 PUSH1 0x6 DUP3 ADD SLOAD PUSH2 0x100 SWAP1 DIV PUSH1 0xFF AND PUSH1 0x5 DUP2 GT ISZERO PUSH2 0x8CB JUMPI PUSH2 0x8CB PUSH2 0x1F8C JUMP JUMPDEST EQ PUSH2 0x90F JUMPI PUSH1 0x40 MLOAD PUSH3 0x461BCD PUSH1 0xE5 SHL DUP2 MSTORE PUSH1 0x20 PUSH1 0x4 DUP3 ADD MSTORE PUSH1 0x14 PUSH1 0x24 DUP3 ADD MSTORE PUSH20 0x50726F707565737461206E6F2063657272616461 PUSH1 0x60 SHL PUSH1 0x44 DUP3 ADD MSTORE PUSH1 0x64 ADD PUSH2 0x65A JUMP JUMPDEST DUP1 PUSH1 0x8 ADD SLOAD DUP2 PUSH1 0x7 ADD SLOAD GT PUSH2 0x95E JUMPI PUSH1 0x40 MLOAD PUSH3 0x461BCD PUSH1 0xE5 SHL DUP2 MSTORE PUSH1 0x20 PUSH1 0x4 DUP3 ADD MSTORE PUSH1 0x15 PUSH1 0x24 DUP3 ADD MSTORE PUSH21 0x50726F707565737461206E6F206170726F62616461 PUSH1 0x58 SHL PUSH1 0x44 DUP3 ADD MSTORE PUSH1 0x64 ADD PUSH2 0x65A JUMP JUMPDEST DUP1 PUSH1 0x5 ADD SLOAD DUP2 PUSH1 0x8 ADD SLOAD DUP3 PUSH1 0x7 ADD SLOAD PUSH2 0x977 SWAP2 SWAP1 PUSH2 0x243B JUMP JUMPDEST LT ISZERO PUSH2 0x9BB JUMPI PUSH1 0x40 MLOAD PUSH3 0x461BCD PUSH1 0xE5 SHL DUP2 MSTORE PUSH1 0x20 PUSH1 0x4 DUP3 ADD MSTORE PUSH1 0x13 PUSH1 0x24 DUP3 ADD MSTORE PUSH19 0x51756F72756D206E6F20616C63616E7A61646F PUSH1 0x68 SHL PUSH1 0x44 DUP3 ADD MSTORE PUSH1 0x64 ADD PUSH2 0x65A JUMP JUMPDEST PUSH1 0x6 DUP2 ADD DUP1 SLOAD PUSH2 0xFF00 NOT AND PUSH2 0x300 OR SWAP1 SSTORE PUSH1 0x40 MLOAD DUP4 SWAP1 PUSH32 0x712AE1383F79AC853F8D882153778E0260EF8F03B504E2866E0593E04D2B291F SWAP1 PUSH1 0x0 SWAP1 LOG2 POP PUSH2 0xA02 PUSH1 0x1 PUSH1 0x2 SSTORE JUMP JUMPDEST POP POP JUMP JUMPDEST PUSH1 0x0 DUP1 MLOAD PUSH1 0x20 PUSH2 0x266D DUP4 CODECOPY DUP2 MLOAD SWAP2 MSTORE PUSH2 0xA1E DUP2 PUSH2 0x1A3E JUMP JUMPDEST PUSH2 0xA26 PUSH2 0x1A48 JUMP JUMPDEST PUSH2 0xA30 DUP3 DUP5 PUSH2 0xA6B JUMP JUMPDEST PUSH1 0x40 MLOAD DUP3 SWAP1 PUSH1 0x1 PUSH1 0x1 PUSH1 0xA0 SHL SUB DUP6 AND SWAP1 PUSH32 0x666448AAE9B9C8249FD8213A35A9C10218A0EAC2FB39B96ED90C67214C7E761 SWAP1 PUSH1 0x0 SWAP1 LOG3 POP POP POP JUMP JUMPDEST PUSH1 0x0 DUP3 DUP2 MSTORE PUSH1 0x20 DUP2 SWAP1 MSTORE PUSH1 0x40 SWAP1 KECCAK256 PUSH1 0x1 ADD SLOAD PUSH2 0xA86 DUP2 PUSH2 0x1A3E JUMP JUMPDEST PUSH2 0xA90 DUP4 DUP4 PUSH2 0x1AE7 JUMP JUMPDEST POP POP POP JUMP JUMPDEST PUSH1 0x1 PUSH1 0x1 PUSH1 0xA0 SHL SUB DUP2 AND CALLER EQ PUSH2 0xB05 JUMPI PUSH1 0x40 MLOAD PUSH3 0x461BCD PUSH1 0xE5 SHL DUP2 MSTORE PUSH1 0x20 PUSH1 0x4 DUP3 ADD MSTORE PUSH1 0x2F PUSH1 0x24 DUP3 ADD MSTORE PUSH32 0x416363657373436F6E74726F6C3A2063616E206F6E6C792072656E6F756E6365 PUSH1 0x44 DUP3 ADD MSTORE PUSH15 0x103937B632B9903337B91039B2B633 PUSH1 0x89 SHL PUSH1 0x64 DUP3 ADD MSTORE PUSH1 0x84 ADD PUSH2 0x65A JUMP JUMPDEST PUSH2 0xA02 DUP3 DUP3 PUSH2 0x1B6B JUMP JUMPDEST PUSH1 0x0 DUP1 MLOAD PUSH1 0x20 PUSH2 0x266D DUP4 CODECOPY DUP2 MLOAD SWAP2 MSTORE PUSH2 0xB27 DUP2 PUSH2 0x1A3E JUMP JUMPDEST PUSH2 0xB2F PUSH2 0x1BD0 JUMP JUMPDEST POP JUMP JUMPDEST PUSH32 0x828634D95E775031B9FF576B159A8509D3053581A8C9C4D7D86899E0AFCD882F PUSH2 0xB5C DUP2 PUSH2 0x1A3E JUMP JUMPDEST PUSH2 0xB64 PUSH2 0x1A48 JUMP JUMPDEST PUSH1 0x0 DUP6 MLOAD GT PUSH2 0xBAD JUMPI PUSH1 0x40 MLOAD PUSH3 0x461BCD PUSH1 0xE5 SHL DUP2 MSTORE PUSH1 0x20 PUSH1 0x4 DUP3 ADD MSTORE PUSH1 0x15 PUSH1 0x24 DUP3 ADD MSTORE PUSH21 0x4465736372697063696F6E20726571756572696461 PUSH1 0x58 SHL PUSH1 0x44 DUP3 ADD MSTORE PUSH1 0x64 ADD PUSH2 0x65A JUMP JUMPDEST PUSH1 0x0 DUP5 GT PUSH2 0xBFD JUMPI PUSH1 0x40 MLOAD PUSH3 0x461BCD PUSH1 0xE5 SHL DUP2 MSTORE PUSH1 0x20 PUSH1 0x4 DUP3 ADD MSTORE PUSH1 0x1B PUSH1 0x24 DUP3 ADD MSTORE PUSH32 0x4475726163696F6E206465626520736572206D61796F72206120300000000000 PUSH1 0x44 DUP3 ADD MSTORE PUSH1 0x64 ADD PUSH2 0x65A JUMP JUMPDEST PUSH1 0x0 DUP4 GT PUSH2 0xC4D JUMPI PUSH1 0x40 MLOAD PUSH3 0x461BCD PUSH1 0xE5 SHL DUP2 MSTORE PUSH1 0x20 PUSH1 0x4 DUP3 ADD MSTORE PUSH1 0x19 PUSH1 0x24 DUP3 ADD MSTORE PUSH32 0x51756F72756D206465626520736572206D61796F722061203000000000000000 PUSH1 0x44 DUP3 ADD MSTORE PUSH1 0x64 ADD PUSH2 0x65A JUMP JUMPDEST PUSH1 0x3 DUP1 SLOAD SWAP1 PUSH1 0x0 PUSH2 0xC5D DUP4 PUSH2 0x244E JUMP JUMPDEST SWAP1 SWAP2 SSTORE POP POP PUSH1 0x3 SLOAD PUSH1 0x0 DUP2 DUP2 MSTORE PUSH1 0x4 PUSH1 0x20 MSTORE PUSH1 0x40 SWAP1 KECCAK256 DUP2 DUP2 SSTORE PUSH1 0x1 DUP2 ADD DUP1 SLOAD PUSH1 0x1 PUSH1 0x1 PUSH1 0xA0 SHL SUB NOT AND CALLER OR SWAP1 SSTORE PUSH1 0x2 DUP2 ADD PUSH2 0xC98 DUP9 DUP3 PUSH2 0x24B5 JUMP JUMPDEST POP TIMESTAMP PUSH1 0x3 DUP3 ADD DUP2 SWAP1 SSTORE PUSH2 0xCAC SWAP1 DUP8 SWAP1 PUSH2 0x243B JUMP JUMPDEST PUSH1 0x4 DUP3 ADD SSTORE PUSH1 0x5 DUP2 ADD DUP6 SWAP1 SSTORE PUSH1 0x6 DUP2 ADD DUP1 SLOAD PUSH2 0xFFFF NOT AND DUP6 ISZERO ISZERO PUSH2 0xFF00 NOT AND OR PUSH2 0x100 OR SWAP1 SSTORE PUSH1 0x40 MLOAD CALLER SWAP1 DUP4 SWAP1 PUSH32 0x7585F467599D0F008985F231AF99293BE388626AC16CA59505C2F8F88969CD63 SWAP1 PUSH2 0xD06 SWAP1 DUP12 SWAP1 PUSH2 0x2575 JUMP JUMPDEST PUSH1 0x40 MLOAD DUP1 SWAP2 SUB SWAP1 LOG3 POP POP POP POP POP POP POP JUMP JUMPDEST PUSH1 0x0 DUP1 MLOAD PUSH1 0x20 PUSH2 0x266D DUP4 CODECOPY DUP2 MLOAD SWAP2 MSTORE PUSH2 0xD2F DUP2 PUSH2 0x1A3E JUMP JUMPDEST PUSH2 0xB2F PUSH2 0x1C22 JUMP JUMPDEST PUSH1 0x0 SWAP2 DUP3 MSTORE PUSH1 0x20 DUP3 DUP2 MSTORE PUSH1 0x40 DUP1 DUP5 KECCAK256 PUSH1 0x1 PUSH1 0x1 PUSH1 0xA0 SHL SUB SWAP4 SWAP1 SWAP4 AND DUP5 MSTORE SWAP2 SWAP1 MSTORE SWAP1 KECCAK256 SLOAD PUSH1 0xFF AND SWAP1 JUMP JUMPDEST PUSH1 0x0 DUP1 MLOAD PUSH1 0x20 PUSH2 0x268D DUP4 CODECOPY DUP2 MLOAD SWAP2 MSTORE PUSH2 0xD78 DUP2 PUSH2 0x1A3E JUMP JUMPDEST PUSH2 0xD80 PUSH2 0x1A48 JUMP JUMPDEST PUSH1 0x0 DUP4 DUP2 MSTORE PUSH1 0x4 PUSH1 0x20 MSTORE PUSH1 0x40 DUP2 KECCAK256 DUP1 SLOAD SWAP1 SWAP2 SUB PUSH2 0xDAF JUMPI PUSH1 0x40 MLOAD PUSH3 0x461BCD PUSH1 0xE5 SHL DUP2 MSTORE PUSH1 0x4 ADD PUSH2 0x65A SWAP1 PUSH2 0x23C9 JUMP JUMPDEST PUSH1 0x1 PUSH1 0x6 DUP3 ADD SLOAD PUSH2 0x100 SWAP1 DIV PUSH1 0xFF AND PUSH1 0x5 DUP2 GT ISZERO PUSH2 0xDCF JUMPI PUSH2 0xDCF PUSH2 0x1F8C JUMP JUMPDEST EQ PUSH2 0xDEC JUMPI PUSH1 0x40 MLOAD PUSH3 0x461BCD PUSH1 0xE5 SHL DUP2 MSTORE PUSH1 0x4 ADD PUSH2 0x65A SWAP1 PUSH2 0x23F8 JUMP JUMPDEST PUSH1 0x0 DUP5 DUP2 MSTORE PUSH1 0x6 PUSH1 0x20 MSTORE PUSH1 0x40 SWAP1 KECCAK256 SLOAD PUSH1 0xFF AND ISZERO PUSH2 0xE4B JUMPI PUSH1 0x40 MLOAD PUSH3 0x461BCD PUSH1 0xE5 SHL DUP2 MSTORE PUSH1 0x20 PUSH1 0x4 DUP3 ADD MSTORE PUSH1 0x19 PUSH1 0x24 DUP3 ADD MSTORE PUSH32 0x4661736520646520636F6D6D69742066696E616C697A61646100000000000000 PUSH1 0x44 DUP3 ADD MSTORE PUSH1 0x64 ADD PUSH2 0x65A JUMP JUMPDEST PUSH1 0x0 DUP5 DUP2 MSTORE PUSH1 0x7 PUSH1 0x20 SWAP1 DUP2 MSTORE PUSH1 0x40 DUP1 DUP4 KECCAK256 CALLER DUP5 MSTORE SWAP1 SWAP2 MSTORE SWAP1 KECCAK256 SLOAD ISZERO PUSH2 0xEAA JUMPI PUSH1 0x40 MLOAD PUSH3 0x461BCD PUSH1 0xE5 SHL DUP2 MSTORE PUSH1 0x20 PUSH1 0x4 DUP3 ADD MSTORE PUSH1 0x15 PUSH1 0x24 DUP3 ADD MSTORE PUSH21 0x1658481A185CC8195B9D9A58591BC818DBDB5B5A5D PUSH1 0x5A SHL PUSH1 0x44 DUP3 ADD MSTORE PUSH1 0x64 ADD PUSH2 0x65A JUMP JUMPDEST POP POP PUSH1 0x0 SWAP2 DUP3 MSTORE PUSH1 0x7 PUSH1 0x20 SWAP1 DUP2 MSTORE PUSH1 0x40 DUP1 DUP5 KECCAK256 CALLER DUP6 MSTORE SWAP1 SWAP2 MSTORE SWAP1 SWAP2 KECCAK256 SSTORE JUMP JUMPDEST PUSH1 0x0 DUP1 MLOAD PUSH1 0x20 PUSH2 0x268D DUP4 CODECOPY DUP2 MLOAD SWAP2 MSTORE PUSH2 0xEE1 DUP2 PUSH2 0x1A3E JUMP JUMPDEST PUSH2 0xEE9 PUSH2 0x1A48 JUMP JUMPDEST PUSH2 0xEF1 PUSH2 0x1A90 JUMP JUMPDEST PUSH1 0x0 DUP5 DUP2 MSTORE PUSH1 0x4 PUSH1 0x20 MSTORE PUSH1 0x40 DUP2 KECCAK256 DUP1 SLOAD SWAP1 SWAP2 SUB PUSH2 0xF20 JUMPI PUSH1 0x40 MLOAD PUSH3 0x461BCD PUSH1 0xE5 SHL DUP2 MSTORE PUSH1 0x4 ADD PUSH2 0x65A SWAP1 PUSH2 0x23C9 JUMP JUMPDEST PUSH1 0x1 PUSH1 0x6 DUP3 ADD SLOAD PUSH2 0x100 SWAP1 DIV PUSH1 0xFF AND PUSH1 0x5 DUP2 GT ISZERO PUSH2 0xF40 JUMPI PUSH2 0xF40 PUSH2 0x1F8C JUMP JUMPDEST EQ PUSH2 0xF5D JUMPI PUSH1 0x40 MLOAD PUSH3 0x461BCD PUSH1 0xE5 SHL DUP2 MSTORE PUSH1 0x4 ADD PUSH2 0x65A SWAP1 PUSH2 0x23F8 JUMP JUMPDEST PUSH1 0x0 DUP6 DUP2 MSTORE PUSH1 0x6 PUSH1 0x20 MSTORE PUSH1 0x40 SWAP1 KECCAK256 SLOAD PUSH1 0xFF AND PUSH2 0xFB2 JUMPI PUSH1 0x40 MLOAD PUSH3 0x461BCD PUSH1 0xE5 SHL DUP2 MSTORE PUSH1 0x20 PUSH1 0x4 DUP3 ADD MSTORE PUSH1 0x14 PUSH1 0x24 DUP3 ADD MSTORE PUSH20 0x139BC8195CC819985CD9481919481C995D99585B PUSH1 0x62 SHL PUSH1 0x44 DUP3 ADD MSTORE PUSH1 0x64 ADD PUSH2 0x65A JUMP JUMPDEST PUSH1 0x0 DUP6 DUP2 MSTORE PUSH1 0x7 PUSH1 0x20 SWAP1 DUP2 MSTORE PUSH1 0x40 DUP1 DUP4 KECCAK256 CALLER DUP5 MSTORE SWAP1 SWAP2 MSTORE DUP2 KECCAK256 SLOAD SWAP1 SUB PUSH2 0x100A JUMPI PUSH1 0x40 MLOAD PUSH3 0x461BCD PUSH1 0xE5 SHL DUP2 MSTORE PUSH1 0x20 PUSH1 0x4 DUP3 ADD MSTORE PUSH1 0xD PUSH1 0x24 DUP3 ADD MSTORE PUSH13 0x139BC81A185E4818DBDB5B5A5D PUSH1 0x9A SHL PUSH1 0x44 DUP3 ADD MSTORE PUSH1 0x64 ADD PUSH2 0x65A JUMP JUMPDEST PUSH1 0x0 DUP6 DUP2 MSTORE PUSH1 0x8 PUSH1 0x20 SWAP1 DUP2 MSTORE PUSH1 0x40 DUP1 DUP4 KECCAK256 CALLER DUP5 MSTORE SWAP1 SWAP2 MSTORE SWAP1 KECCAK256 SLOAD PUSH1 0xFF AND ISZERO PUSH2 0x1066 JUMPI PUSH1 0x40 MLOAD PUSH3 0x461BCD PUSH1 0xE5 SHL DUP2 MSTORE PUSH1 0x20 PUSH1 0x4 DUP3 ADD MSTORE PUSH1 0xF PUSH1 0x24 DUP3 ADD MSTORE PUSH15 0x59612068617320726576656C61646F PUSH1 0x88 SHL PUSH1 0x44 DUP3 ADD MSTORE PUSH1 0x64 ADD PUSH2 0x65A JUMP JUMPDEST PUSH1 0x0 DUP6 DUP2 MSTORE PUSH1 0x5 PUSH1 0x20 SWAP1 DUP2 MSTORE PUSH1 0x40 DUP1 DUP4 KECCAK256 CALLER DUP5 MSTORE SWAP1 SWAP2 MSTORE SWAP1 KECCAK256 SLOAD PUSH1 0xFF AND ISZERO PUSH2 0x10C0 JUMPI PUSH1 0x40 MLOAD PUSH3 0x461BCD PUSH1 0xE5 SHL DUP2 MSTORE PUSH1 0x20 PUSH1 0x4 DUP3 ADD MSTORE PUSH1 0xD PUSH1 0x24 DUP3 ADD MSTORE PUSH13 0x59612068617320766F7461646F PUSH1 0x98 SHL PUSH1 0x44 DUP3 ADD MSTORE PUSH1 0x64 ADD PUSH2 0x65A JUMP JUMPDEST PUSH1 0x0 DUP5 DUP5 PUSH1 0x40 MLOAD PUSH1 0x20 ADD PUSH2 0x10D5 SWAP3 SWAP2 SWAP1 PUSH2 0x2588 JUMP JUMPDEST PUSH1 0x40 DUP1 MLOAD PUSH1 0x1F NOT DUP2 DUP5 SUB ADD DUP2 MSTORE SWAP2 DUP2 MSTORE DUP2 MLOAD PUSH1 0x20 SWAP3 DUP4 ADD KECCAK256 PUSH1 0x0 DUP10 DUP2 MSTORE PUSH1 0x7 DUP5 MSTORE DUP3 DUP2 KECCAK256 CALLER DUP3 MSTORE SWAP1 SWAP4 MSTORE SWAP2 KECCAK256 SLOAD SWAP1 SWAP2 POP DUP2 EQ PUSH2 0x1148 JUMPI PUSH1 0x40 MLOAD PUSH3 0x461BCD PUSH1 0xE5 SHL DUP2 MSTORE PUSH1 0x20 PUSH1 0x4 DUP3 ADD MSTORE PUSH1 0x12 PUSH1 0x24 DUP3 ADD MSTORE PUSH18 0x436F6D6D6974206E6F20636F696E63696465 PUSH1 0x70 SHL PUSH1 0x44 DUP3 ADD MSTORE PUSH1 0x64 ADD PUSH2 0x65A JUMP JUMPDEST PUSH1 0x0 DUP7 DUP2 MSTORE PUSH1 0x5 PUSH1 0x20 SWAP1 DUP2 MSTORE PUSH1 0x40 DUP1 DUP4 KECCAK256 CALLER DUP1 DUP6 MSTORE SWAP1 DUP4 MSTORE DUP2 DUP5 KECCAK256 DUP1 SLOAD PUSH1 0x1 PUSH1 0xFF NOT SWAP2 DUP3 AND DUP2 OR SWAP1 SWAP3 SSTORE DUP12 DUP7 MSTORE PUSH1 0x8 DUP6 MSTORE DUP4 DUP7 KECCAK256 SWAP3 DUP7 MSTORE SWAP2 SWAP1 SWAP4 MSTORE SWAP3 KECCAK256 DUP1 SLOAD SWAP1 SWAP3 AND OR SWAP1 SSTORE DUP5 ISZERO PUSH2 0x11AF JUMPI PUSH1 0x7 DUP3 ADD DUP1 SLOAD SWAP1 PUSH1 0x0 PUSH2 0x11A5 DUP4 PUSH2 0x244E JUMP JUMPDEST SWAP2 SWAP1 POP SSTORE POP PUSH2 0x11C7 JUMP JUMPDEST PUSH1 0x8 DUP3 ADD DUP1 SLOAD SWAP1 PUSH1 0x0 PUSH2 0x11C1 DUP4 PUSH2 0x244E JUMP JUMPDEST SWAP2 SWAP1 POP SSTORE POP JUMPDEST PUSH1 0x40 MLOAD DUP6 ISZERO ISZERO DUP2 MSTORE CALLER SWAP1 DUP8 SWAP1 PUSH32 0xF2913DBE661EE2ACC4A046D8FBCDC792373BDA34C41C6086484B5345E5785E5F SWAP1 PUSH1 0x20 ADD PUSH1 0x40 MLOAD DUP1 SWAP2 SUB SWAP1 LOG3 POP POP PUSH2 0x84E PUSH1 0x1 PUSH1 0x2 SSTORE JUMP JUMPDEST PUSH1 0x0 DUP1 MLOAD PUSH1 0x20 PUSH2 0x266D DUP4 CODECOPY DUP2 MLOAD SWAP2 MSTORE PUSH2 0x1224 DUP2 PUSH2 0x1A3E JUMP JUMPDEST PUSH2 0x122C PUSH2 0x1A48 JUMP JUMPDEST PUSH1 0x0 DUP3 DUP2 MSTORE PUSH1 0x4 PUSH1 0x20 MSTORE PUSH1 0x40 DUP2 KECCAK256 DUP1 SLOAD SWAP1 SWAP2 SUB PUSH2 0x125B JUMPI PUSH1 0x40 MLOAD PUSH3 0x461BCD PUSH1 0xE5 SHL DUP2 MSTORE PUSH1 0x4 ADD PUSH2 0x65A SWAP1 PUSH2 0x23C9 JUMP JUMPDEST PUSH1 0x1 PUSH1 0x6 DUP3 ADD SLOAD PUSH2 0x100 SWAP1 DIV PUSH1 0xFF AND PUSH1 0x5 DUP2 GT ISZERO PUSH2 0x127B JUMPI PUSH2 0x127B PUSH2 0x1F8C JUMP JUMPDEST EQ PUSH2 0x1298 JUMPI PUSH1 0x40 MLOAD PUSH3 0x461BCD PUSH1 0xE5 SHL DUP2 MSTORE PUSH1 0x4 ADD PUSH2 0x65A SWAP1 PUSH2 0x23F8 JUMP JUMPDEST PUSH1 0x0 DUP4 DUP2 MSTORE PUSH1 0x6 PUSH1 0x20 MSTORE PUSH1 0x40 SWAP1 KECCAK256 SLOAD PUSH1 0xFF AND ISZERO PUSH2 0x12EB JUMPI PUSH1 0x40 MLOAD PUSH3 0x461BCD PUSH1 0xE5 SHL DUP2 MSTORE PUSH1 0x20 PUSH1 0x4 DUP3 ADD MSTORE PUSH1 0x11 PUSH1 0x24 DUP3 ADD MSTORE PUSH17 0x165848195B8819985CD9481C995D99585B PUSH1 0x7A SHL PUSH1 0x44 DUP3 ADD MSTORE PUSH1 0x64 ADD PUSH2 0x65A JUMP JUMPDEST POP POP PUSH1 0x0 SWAP1 DUP2 MSTORE PUSH1 0x6 PUSH1 0x20 MSTORE PUSH1 0x40 SWAP1 KECCAK256 DUP1 SLOAD PUSH1 0xFF NOT AND PUSH1 0x1 OR SWAP1 SSTORE JUMP JUMPDEST PUSH2 0x1310 PUSH2 0x1EB4 JUMP JUMPDEST PUSH1 0x0 DUP3 DUP2 MSTORE PUSH1 0x4 PUSH1 0x20 MSTORE PUSH1 0x40 DUP2 KECCAK256 SLOAD SWAP1 SUB PUSH2 0x133D JUMPI PUSH1 0x40 MLOAD PUSH3 0x461BCD PUSH1 0xE5 SHL DUP2 MSTORE PUSH1 0x4 ADD PUSH2 0x65A SWAP1 PUSH2 0x23C9 JUMP JUMPDEST PUSH1 0x0 DUP3 DUP2 MSTORE PUSH1 0x4 PUSH1 0x20 SWAP1 DUP2 MSTORE PUSH1 0x40 SWAP2 DUP3 SWAP1 KECCAK256 DUP3 MLOAD PUSH2 0x140 DUP2 ADD DUP5 MSTORE DUP2 SLOAD DUP2 MSTORE PUSH1 0x1 DUP3 ADD SLOAD PUSH1 0x1 PUSH1 0x1 PUSH1 0xA0 SHL SUB AND SWAP3 DUP2 ADD SWAP3 SWAP1 SWAP3 MSTORE PUSH1 0x2 DUP2 ADD DUP1 SLOAD SWAP3 SWAP4 SWAP2 SWAP3 SWAP2 DUP5 ADD SWAP2 PUSH2 0x1388 SWAP1 PUSH2 0x2395 JUMP JUMPDEST DUP1 PUSH1 0x1F ADD PUSH1 0x20 DUP1 SWAP2 DIV MUL PUSH1 0x20 ADD PUSH1 0x40 MLOAD SWAP1 DUP2 ADD PUSH1 0x40 MSTORE DUP1 SWAP3 SWAP2 SWAP1 DUP2 DUP2 MSTORE PUSH1 0x20 ADD DUP3 DUP1 SLOAD PUSH2 0x13B4 SWAP1 PUSH2 0x2395 JUMP JUMPDEST DUP1 ISZERO PUSH2 0x1401 JUMPI DUP1 PUSH1 0x1F LT PUSH2 0x13D6 JUMPI PUSH2 0x100 DUP1 DUP4 SLOAD DIV MUL DUP4 MSTORE SWAP2 PUSH1 0x20 ADD SWAP2 PUSH2 0x1401 JUMP JUMPDEST DUP3 ADD SWAP2 SWAP1 PUSH1 0x0 MSTORE PUSH1 0x20 PUSH1 0x0 KECCAK256 SWAP1 JUMPDEST DUP2 SLOAD DUP2 MSTORE SWAP1 PUSH1 0x1 ADD SWAP1 PUSH1 0x20 ADD DUP1 DUP4 GT PUSH2 0x13E4 JUMPI DUP3 SWAP1 SUB PUSH1 0x1F AND DUP3 ADD SWAP2 JUMPDEST POP POP POP SWAP2 DUP4 MSTORE POP POP PUSH1 0x3 DUP3 ADD SLOAD PUSH1 0x20 DUP3 ADD MSTORE PUSH1 0x4 DUP3 ADD SLOAD PUSH1 0x40 DUP3 ADD MSTORE PUSH1 0x5 DUP1 DUP4 ADD SLOAD PUSH1 0x60 DUP4 ADD MSTORE PUSH1 0x6 DUP4 ADD SLOAD PUSH1 0xFF DUP1 DUP3 AND ISZERO ISZERO PUSH1 0x80 DUP6 ADD MSTORE PUSH1 0xA0 SWAP1 SWAP4 ADD SWAP3 PUSH2 0x100 SWAP1 SWAP2 DIV AND SWAP1 DUP2 GT ISZERO PUSH2 0x1456 JUMPI PUSH2 0x1456 PUSH2 0x1F8C JUMP JUMPDEST PUSH1 0x5 DUP2 GT ISZERO PUSH2 0x1467 JUMPI PUSH2 0x1467 PUSH2 0x1F8C JUMP JUMPDEST DUP2 MSTORE PUSH1 0x7 DUP3 ADD SLOAD PUSH1 0x20 DUP3 ADD MSTORE PUSH1 0x8 SWAP1 SWAP2 ADD SLOAD PUSH1 0x40 SWAP1 SWAP2 ADD MSTORE SWAP3 SWAP2 POP POP JUMP JUMPDEST PUSH1 0x0 DUP1 MLOAD PUSH1 0x20 PUSH2 0x268D DUP4 CODECOPY DUP2 MLOAD SWAP2 MSTORE PUSH2 0x149D DUP2 PUSH2 0x1A3E JUMP JUMPDEST PUSH2 0x14A5 PUSH2 0x1A48 JUMP JUMPDEST PUSH2 0x14AD PUSH2 0x1A90 JUMP JUMPDEST PUSH1 0x0 DUP4 DUP2 MSTORE PUSH1 0x4 PUSH1 0x20 MSTORE PUSH1 0x40 DUP2 KECCAK256 DUP1 SLOAD SWAP1 SWAP2 SUB PUSH2 0x14DC JUMPI PUSH1 0x40 MLOAD PUSH3 0x461BCD PUSH1 0xE5 SHL DUP2 MSTORE PUSH1 0x4 ADD PUSH2 0x65A SWAP1 PUSH2 0x23C9 JUMP JUMPDEST PUSH1 0x1 PUSH1 0x6 DUP3 ADD SLOAD PUSH2 0x100 SWAP1 DIV PUSH1 0xFF AND PUSH1 0x5 DUP2 GT ISZERO PUSH2 0x14FC JUMPI PUSH2 0x14FC PUSH2 0x1F8C JUMP JUMPDEST EQ PUSH2 0x1519 JUMPI PUSH1 0x40 MLOAD PUSH3 0x461BCD PUSH1 0xE5 SHL DUP2 MSTORE PUSH1 0x4 ADD PUSH2 0x65A SWAP1 PUSH2 0x23F8 JUMP JUMPDEST DUP1 PUSH1 0x3 ADD SLOAD TIMESTAMP LT ISZERO PUSH2 0x1564 JUMPI PUSH1 0x40 MLOAD PUSH3 0x461BCD PUSH1 0xE5 SHL DUP2 MSTORE PUSH1 0x20 PUSH1 0x4 DUP3 ADD MSTORE PUSH1 0x14 PUSH1 0x24 DUP3 ADD MSTORE PUSH20 0x566F746163696F6E206E6F20696E696369616461 PUSH1 0x60 SHL PUSH1 0x44 DUP3 ADD MSTORE PUSH1 0x64 ADD PUSH2 0x65A JUMP JUMPDEST DUP1 PUSH1 0x4 ADD SLOAD TIMESTAMP GT ISZERO PUSH2 0x15AE JUMPI PUSH1 0x40 MLOAD PUSH3 0x461BCD PUSH1 0xE5 SHL DUP2 MSTORE PUSH1 0x20 PUSH1 0x4 DUP3 ADD MSTORE PUSH1 0x13 PUSH1 0x24 DUP3 ADD MSTORE PUSH19 0x566F746163696F6E2066696E616C697A616461 PUSH1 0x68 SHL PUSH1 0x44 DUP3 ADD MSTORE PUSH1 0x64 ADD PUSH2 0x65A JUMP JUMPDEST PUSH1 0x0 DUP5 DUP2 MSTORE PUSH1 0x5 PUSH1 0x20 SWAP1 DUP2 MSTORE PUSH1 0x40 DUP1 DUP4 KECCAK256 CALLER DUP5 MSTORE SWAP1 SWAP2 MSTORE SWAP1 KECCAK256 SLOAD PUSH1 0xFF AND ISZERO PUSH2 0x1608 JUMPI PUSH1 0x40 MLOAD PUSH3 0x461BCD PUSH1 0xE5 SHL DUP2 MSTORE PUSH1 0x20 PUSH1 0x4 DUP3 ADD MSTORE PUSH1 0xD PUSH1 0x24 DUP3 ADD MSTORE PUSH13 0x59612068617320766F7461646F PUSH1 0x98 SHL PUSH1 0x44 DUP3 ADD MSTORE PUSH1 0x64 ADD PUSH2 0x65A JUMP JUMPDEST PUSH1 0x0 DUP5 DUP2 MSTORE PUSH1 0x5 PUSH1 0x20 SWAP1 DUP2 MSTORE PUSH1 0x40 DUP1 DUP4 KECCAK256 CALLER DUP5 MSTORE SWAP1 SWAP2 MSTORE SWAP1 KECCAK256 DUP1 SLOAD PUSH1 0xFF NOT AND PUSH1 0x1 OR SWAP1 SSTORE DUP3 ISZERO PUSH2 0x164E JUMPI PUSH1 0x7 DUP2 ADD DUP1 SLOAD SWAP1 PUSH1 0x0 PUSH2 0x1644 DUP4 PUSH2 0x244E JUMP JUMPDEST SWAP2 SWAP1 POP SSTORE POP PUSH2 0x1666 JUMP JUMPDEST PUSH1 0x8 DUP2 ADD DUP1 SLOAD SWAP1 PUSH1 0x0 PUSH2 0x1660 DUP4 PUSH2 0x244E JUMP JUMPDEST SWAP2 SWAP1 POP SSTORE POP JUMPDEST PUSH1 0x40 MLOAD DUP4 ISZERO ISZERO DUP2 MSTORE CALLER SWAP1 DUP6 SWAP1 PUSH32 0xF2913DBE661EE2ACC4A046D8FBCDC792373BDA34C41C6086484B5345E5785E5F SWAP1 PUSH1 0x20 ADD PUSH1 0x40 MLOAD DUP1 SWAP2 SUB SWAP1 LOG3 POP PUSH2 0xA90 PUSH1 0x1 PUSH1 0x2 SSTORE JUMP JUMPDEST PUSH1 0x60 PUSH1 0x0 PUSH1 0x3 SLOAD PUSH8 0xFFFFFFFFFFFFFFFF DUP2 GT ISZERO PUSH2 0x16C9 JUMPI PUSH2 0x16C9 PUSH2 0x20CF JUMP JUMPDEST PUSH1 0x40 MLOAD SWAP1 DUP1 DUP3 MSTORE DUP1 PUSH1 0x20 MUL PUSH1 0x20 ADD DUP3 ADD PUSH1 0x40 MSTORE DUP1 ISZERO PUSH2 0x1702 JUMPI DUP2 PUSH1 0x20 ADD JUMPDEST PUSH2 0x16EF PUSH2 0x1EB4 JUMP JUMPDEST DUP2 MSTORE PUSH1 0x20 ADD SWAP1 PUSH1 0x1 SWAP1 SUB SWAP1 DUP2 PUSH2 0x16E7 JUMPI SWAP1 POP JUMPDEST POP SWAP1 POP PUSH1 0x0 JUMPDEST PUSH1 0x3 SLOAD DUP2 LT ISZERO PUSH2 0x1891 JUMPI PUSH1 0x4 PUSH1 0x0 PUSH2 0x1721 DUP4 PUSH1 0x1 PUSH2 0x243B JUMP JUMPDEST DUP2 MSTORE PUSH1 0x20 DUP1 DUP3 ADD SWAP3 SWAP1 SWAP3 MSTORE PUSH1 0x40 SWAP1 DUP2 ADD PUSH1 0x0 KECCAK256 DUP2 MLOAD PUSH2 0x140 DUP2 ADD DUP4 MSTORE DUP2 SLOAD DUP2 MSTORE PUSH1 0x1 DUP3 ADD SLOAD PUSH1 0x1 PUSH1 0x1 PUSH1 0xA0 SHL SUB AND SWAP4 DUP2 ADD SWAP4 SWAP1 SWAP4 MSTORE PUSH1 0x2 DUP2 ADD DUP1 SLOAD SWAP2 SWAP3 DUP5 ADD SWAP2 PUSH2 0x176A SWAP1 PUSH2 0x2395 JUMP JUMPDEST DUP1 PUSH1 0x1F ADD PUSH1 0x20 DUP1 SWAP2 DIV MUL PUSH1 0x20 ADD PUSH1 0x40 MLOAD SWAP1 DUP2 ADD PUSH1 0x40 MSTORE DUP1 SWAP3 SWAP2 SWAP1 DUP2 DUP2 MSTORE PUSH1 0x20 ADD DUP3 DUP1 SLOAD PUSH2 0x1796 SWAP1 PUSH2 0x2395 JUMP JUMPDEST DUP1 ISZERO PUSH2 0x17E3 JUMPI DUP1 PUSH1 0x1F LT PUSH2 0x17B8 JUMPI PUSH2 0x100 DUP1 DUP4 SLOAD DIV MUL DUP4 MSTORE SWAP2 PUSH1 0x20 ADD SWAP2 PUSH2 0x17E3 JUMP JUMPDEST DUP3 ADD SWAP2 SWAP1 PUSH1 0x0 MSTORE PUSH1 0x20 PUSH1 0x0 KECCAK256 SWAP1 JUMPDEST DUP2 SLOAD DUP2 MSTORE SWAP1 PUSH1 0x1 ADD SWAP1 PUSH1 0x20 ADD DUP1 DUP4 GT PUSH2 0x17C6 JUMPI DUP3 SWAP1 SUB PUSH1 0x1F AND DUP3 ADD SWAP2 JUMPDEST POP POP POP SWAP2 DUP4 MSTORE POP POP PUSH1 0x3 DUP3 ADD SLOAD PUSH1 0x20 DUP3 ADD MSTORE PUSH1 0x4 DUP3 ADD SLOAD PUSH1 0x40 DUP3 ADD MSTORE PUSH1 0x5 DUP1 DUP4 ADD SLOAD PUSH1 0x60 DUP4 ADD MSTORE PUSH1 0x6 DUP4 ADD SLOAD PUSH1 0xFF DUP1 DUP3 AND ISZERO ISZERO PUSH1 0x80 DUP6 ADD MSTORE PUSH1 0xA0 SWAP1 SWAP4 ADD SWAP3 PUSH2 0x100 SWAP1 SWAP2 DIV AND SWAP1 DUP2 GT ISZERO PUSH2 0x1838 JUMPI PUSH2 0x1838 PUSH2 0x1F8C JUMP JUMPDEST PUSH1 0x5 DUP2 GT ISZERO PUSH2 0x1849 JUMPI PUSH2 0x1849 PUSH2 0x1F8C JUMP JUMPDEST DUP2 MSTORE PUSH1 0x20 ADD PUSH1 0x7 DUP3 ADD SLOAD DUP2 MSTORE PUSH1 0x20 ADD PUSH1 0x8 DUP3 ADD SLOAD DUP2 MSTORE POP POP DUP3 DUP3 DUP2 MLOAD DUP2 LT PUSH2 0x1873 JUMPI PUSH2 0x1873 PUSH2 0x25B3 JUMP JUMPDEST PUSH1 0x20 MUL PUSH1 0x20 ADD ADD DUP2 SWAP1 MSTORE POP DUP1 DUP1 PUSH2 0x1889 SWAP1 PUSH2 0x244E JUMP JUMPDEST SWAP2 POP POP PUSH2 0x1708 JUMP JUMPDEST POP SWAP2 SWAP1 POP JUMP JUMPDEST PUSH1 0x0 DUP3 DUP2 MSTORE PUSH1 0x20 DUP2 SWAP1 MSTORE PUSH1 0x40 SWAP1 KECCAK256 PUSH1 0x1 ADD SLOAD PUSH2 0x18B2 DUP2 PUSH2 0x1A3E JUMP JUMPDEST PUSH2 0xA90 DUP4 DUP4 PUSH2 0x1B6B JUMP JUMPDEST PUSH2 0x18C4 PUSH2 0x1A48 JUMP JUMPDEST PUSH1 0x0 DUP2 DUP2 MSTORE PUSH1 0x4 PUSH1 0x20 MSTORE PUSH1 0x40 DUP2 KECCAK256 DUP1 SLOAD SWAP1 SWAP2 SUB PUSH2 0x18F3 JUMPI PUSH1 0x40 MLOAD PUSH3 0x461BCD PUSH1 0xE5 SHL DUP2 MSTORE PUSH1 0x4 ADD PUSH2 0x65A SWAP1 PUSH2 0x23C9 JUMP JUMPDEST PUSH1 0x1 PUSH1 0x6 DUP3 ADD SLOAD PUSH2 0x100 SWAP1 DIV PUSH1 0xFF AND PUSH1 0x5 DUP2 GT ISZERO PUSH2 0x1913 JUMPI PUSH2 0x1913 PUSH2 0x1F8C JUMP JUMPDEST EQ PUSH2 0x1972 JUMPI PUSH1 0x40 MLOAD PUSH3 0x461BCD PUSH1 0xE5 SHL DUP2 MSTORE PUSH1 0x20 PUSH1 0x4 DUP3 ADD MSTORE PUSH1 0x29 PUSH1 0x24 DUP3 ADD MSTORE PUSH32 0x536F6C6F2070726F7075657374617320616374697661732070756564656E2063 PUSH1 0x44 DUP3 ADD MSTORE PUSH9 0x616E63656C61727365 PUSH1 0xB8 SHL PUSH1 0x64 DUP3 ADD MSTORE PUSH1 0x84 ADD PUSH2 0x65A JUMP JUMPDEST PUSH2 0x198A PUSH1 0x0 DUP1 MLOAD PUSH1 0x20 PUSH2 0x266D DUP4 CODECOPY DUP2 MLOAD SWAP2 MSTORE CALLER PUSH2 0xD37 JUMP JUMPDEST DUP1 PUSH2 0x19A1 JUMPI POP PUSH1 0x1 DUP2 ADD SLOAD PUSH1 0x1 PUSH1 0x1 PUSH1 0xA0 SHL SUB AND CALLER EQ JUMPDEST PUSH2 0x19FE JUMPI PUSH1 0x40 MLOAD PUSH3 0x461BCD PUSH1 0xE5 SHL DUP2 MSTORE PUSH1 0x20 PUSH1 0x4 DUP3 ADD MSTORE PUSH1 0x28 PUSH1 0x24 DUP3 ADD MSTORE PUSH32 0x536F6C6F20676F7665726E616E6365206F2063726561646F7220707565646520 PUSH1 0x44 DUP3 ADD MSTORE PUSH8 0x31B0B731B2B630B9 PUSH1 0xC1 SHL PUSH1 0x64 DUP3 ADD MSTORE PUSH1 0x84 ADD PUSH2 0x65A JUMP JUMPDEST PUSH1 0x6 DUP2 ADD DUP1 SLOAD PUSH2 0xFF00 NOT AND PUSH2 0x500 OR SWAP1 SSTORE PUSH1 0x40 MLOAD DUP3 SWAP1 PUSH32 0x416E669C63D9A3A5E36EE7CC7E2104B8DB28CCD286AA18966E98FA230C73B08C SWAP1 PUSH1 0x0 SWAP1 LOG2 POP POP JUMP JUMPDEST PUSH2 0xB2F DUP2 CALLER PUSH2 0x1C5D JUMP JUMPDEST PUSH1 0x1 SLOAD PUSH1 0xFF AND ISZERO PUSH2 0x1A8E JUMPI PUSH1 0x40 MLOAD PUSH3 0x461BCD PUSH1 0xE5 SHL DUP2 MSTORE PUSH1 0x20 PUSH1 0x4 DUP3 ADD MSTORE PUSH1 0x10 PUSH1 0x24 DUP3 ADD MSTORE PUSH16 0x14185D5CD8589B194E881C185D5CD959 PUSH1 0x82 SHL PUSH1 0x44 DUP3 ADD MSTORE PUSH1 0x64 ADD PUSH2 0x65A JUMP JUMPDEST JUMP JUMPDEST PUSH1 0x2 DUP1 SLOAD SUB PUSH2 0x1AE1 JUMPI PUSH1 0x40 MLOAD PUSH3 0x461BCD PUSH1 0xE5 SHL DUP2 MSTORE PUSH1 0x20 PUSH1 0x4 DUP3 ADD MSTORE PUSH1 0x1F PUSH1 0x24 DUP3 ADD MSTORE PUSH32 0x5265656E7472616E637947756172643A207265656E7472616E742063616C6C00 PUSH1 0x44 DUP3 ADD MSTORE PUSH1 0x64 ADD PUSH2 0x65A JUMP JUMPDEST PUSH1 0x2 DUP1 SSTORE JUMP JUMPDEST PUSH2 0x1AF1 DUP3 DUP3 PUSH2 0xD37 JUMP JUMPDEST PUSH2 0xA02 JUMPI PUSH1 0x0 DUP3 DUP2 MSTORE PUSH1 0x20 DUP2 DUP2 MSTORE PUSH1 0x40 DUP1 DUP4 KECCAK256 PUSH1 0x1 PUSH1 0x1 PUSH1 0xA0 SHL SUB DUP6 AND DUP5 MSTORE SWAP1 SWAP2 MSTORE SWAP1 KECCAK256 DUP1 SLOAD PUSH1 0xFF NOT AND PUSH1 0x1 OR SWAP1 SSTORE PUSH2 0x1B27 CALLER SWAP1 JUMP JUMPDEST PUSH1 0x1 PUSH1 0x1 PUSH1 0xA0 SHL SUB AND DUP2 PUSH1 0x1 PUSH1 0x1 PUSH1 0xA0 SHL SUB AND DUP4 PUSH32 0x2F8788117E7EFF1D82E926EC794901D17C78024A50270940304540A733656F0D PUSH1 0x40 MLOAD PUSH1 0x40 MLOAD DUP1 SWAP2 SUB SWAP1 LOG4 POP POP JUMP JUMPDEST PUSH2 0x1B75 DUP3 DUP3 PUSH2 0xD37 JUMP JUMPDEST ISZERO PUSH2 0xA02 JUMPI PUSH1 0x0 DUP3 DUP2 MSTORE PUSH1 0x20 DUP2 DUP2 MSTORE PUSH1 0x40 DUP1 DUP4 KECCAK256 PUSH1 0x1 PUSH1 0x1 PUSH1 0xA0 SHL SUB DUP6 AND DUP1 DUP6 MSTORE SWAP3 MSTORE DUP1 DUP4 KECCAK256 DUP1 SLOAD PUSH1 0xFF NOT AND SWAP1 SSTORE MLOAD CALLER SWAP3 DUP6 SWAP2 PUSH32 0xF6391F5C32D9C69D2A47EA670B442974B53935D1EDC7FD64EB21E047A839171B SWAP2 SWAP1 LOG4 POP POP JUMP JUMPDEST PUSH2 0x1BD8 PUSH2 0x1CB6 JUMP JUMPDEST PUSH1 0x1 DUP1 SLOAD PUSH1 0xFF NOT AND SWAP1 SSTORE PUSH32 0x5DB9EE0A495BF2E6FF9C91A7834C1BA4FDD244A5E8AA4E537BD38AEAE4B073AA CALLER JUMPDEST PUSH1 0x40 MLOAD PUSH1 0x1 PUSH1 0x1 PUSH1 0xA0 SHL SUB SWAP1 SWAP2 AND DUP2 MSTORE PUSH1 0x20 ADD PUSH1 0x40 MLOAD DUP1 SWAP2 SUB SWAP1 LOG1 JUMP JUMPDEST PUSH2 0x1C2A PUSH2 0x1A48 JUMP JUMPDEST PUSH1 0x1 DUP1 SLOAD PUSH1 0xFF NOT AND DUP2 OR SWAP1 SSTORE PUSH32 0x62E78CEA01BEE320CD4E420270B5EA74000D11B0C9F74754EBDBFC544B05A258 CALLER PUSH2 0x1C05 JUMP JUMPDEST PUSH2 0x1C67 DUP3 DUP3 PUSH2 0xD37 JUMP JUMPDEST PUSH2 0xA02 JUMPI PUSH2 0x1C74 DUP2 PUSH2 0x1CFF JUMP JUMPDEST PUSH2 0x1C7F DUP4 PUSH1 0x20 PUSH2 0x1D11 JUMP JUMPDEST PUSH1 0x40 MLOAD PUSH1 0x20 ADD PUSH2 0x1C90 SWAP3 SWAP2 SWAP1 PUSH2 0x25C9 JUMP JUMPDEST PUSH1 0x40 DUP1 MLOAD PUSH1 0x1F NOT DUP2 DUP5 SUB ADD DUP2 MSTORE SWAP1 DUP3 SWAP1 MSTORE PUSH3 0x461BCD PUSH1 0xE5 SHL DUP3 MSTORE PUSH2 0x65A SWAP2 PUSH1 0x4 ADD PUSH2 0x2575 JUMP JUMPDEST PUSH1 0x1 SLOAD PUSH1 0xFF AND PUSH2 0x1A8E JUMPI PUSH1 0x40 MLOAD PUSH3 0x461BCD PUSH1 0xE5 SHL DUP2 MSTORE PUSH1 0x20 PUSH1 0x4 DUP3 ADD MSTORE PUSH1 0x14 PUSH1 0x24 DUP3 ADD MSTORE PUSH20 0x14185D5CD8589B194E881B9BDD081C185D5CD959 PUSH1 0x62 SHL PUSH1 0x44 DUP3 ADD MSTORE PUSH1 0x64 ADD PUSH2 0x65A JUMP JUMPDEST PUSH1 0x60 PUSH2 0x605 PUSH1 0x1 PUSH1 0x1 PUSH1 0xA0 SHL SUB DUP4 AND PUSH1 0x14 JUMPDEST PUSH1 0x60 PUSH1 0x0 PUSH2 0x1D20 DUP4 PUSH1 0x2 PUSH2 0x263E JUMP JUMPDEST PUSH2 0x1D2B SWAP1 PUSH1 0x2 PUSH2 0x243B JUMP JUMPDEST PUSH8 0xFFFFFFFFFFFFFFFF DUP2 GT ISZERO PUSH2 0x1D43 JUMPI PUSH2 0x1D43 PUSH2 0x20CF JUMP JUMPDEST PUSH1 0x40 MLOAD SWAP1 DUP1 DUP3 MSTORE DUP1 PUSH1 0x1F ADD PUSH1 0x1F NOT AND PUSH1 0x20 ADD DUP3 ADD PUSH1 0x40 MSTORE DUP1 ISZERO PUSH2 0x1D6D JUMPI PUSH1 0x20 DUP3 ADD DUP2 DUP1 CALLDATASIZE DUP4 CALLDATACOPY ADD SWAP1 POP JUMPDEST POP SWAP1 POP PUSH1 0x3 PUSH1 0xFC SHL DUP2 PUSH1 0x0 DUP2 MLOAD DUP2 LT PUSH2 0x1D88 JUMPI PUSH2 0x1D88 PUSH2 0x25B3 JUMP JUMPDEST PUSH1 0x20 ADD ADD SWAP1 PUSH1 0x1 PUSH1 0x1 PUSH1 0xF8 SHL SUB NOT AND SWAP1 DUP2 PUSH1 0x0 BYTE SWAP1 MSTORE8 POP PUSH1 0xF PUSH1 0xFB SHL DUP2 PUSH1 0x1 DUP2 MLOAD DUP2 LT PUSH2 0x1DB7 JUMPI PUSH2 0x1DB7 PUSH2 0x25B3 JUMP JUMPDEST PUSH1 0x20 ADD ADD SWAP1 PUSH1 0x1 PUSH1 0x1 PUSH1 0xF8 SHL SUB NOT AND SWAP1 DUP2 PUSH1 0x0 BYTE SWAP1 MSTORE8 POP PUSH1 0x0 PUSH2 0x1DDB DUP5 PUSH1 0x2 PUSH2 0x263E JUMP JUMPDEST PUSH2 0x1DE6 SWAP1 PUSH1 0x1 PUSH2 0x243B JUMP JUMPDEST SWAP1 POP JUMPDEST PUSH1 0x1 DUP2 GT ISZERO PUSH2 0x1E5E JUMPI PUSH16 0x181899199A1A9B1B9C1CB0B131B232B3 PUSH1 0x81 SHL DUP6 PUSH1 0xF AND PUSH1 0x10 DUP2 LT PUSH2 0x1E1A JUMPI PUSH2 0x1E1A PUSH2 0x25B3 JUMP JUMPDEST BYTE PUSH1 0xF8 SHL DUP3 DUP3 DUP2 MLOAD DUP2 LT PUSH2 0x1E30 JUMPI PUSH2 0x1E30 PUSH2 0x25B3 JUMP JUMPDEST PUSH1 0x20 ADD ADD SWAP1 PUSH1 0x1 PUSH1 0x1 PUSH1 0xF8 SHL SUB NOT AND SWAP1 DUP2 PUSH1 0x0 BYTE SWAP1 MSTORE8 POP PUSH1 0x4 SWAP5 SWAP1 SWAP5 SHR SWAP4 PUSH2 0x1E57 DUP2 PUSH2 0x2655 JUMP JUMPDEST SWAP1 POP PUSH2 0x1DE9 JUMP JUMPDEST POP DUP4 ISZERO PUSH2 0x1EAD JUMPI PUSH1 0x40 MLOAD PUSH3 0x461BCD PUSH1 0xE5 SHL DUP2 MSTORE PUSH1 0x20 PUSH1 0x4 DUP3 ADD DUP2 SWAP1 MSTORE PUSH1 0x24 DUP3 ADD MSTORE PUSH32 0x537472696E67733A20686578206C656E67746820696E73756666696369656E74 PUSH1 0x44 DUP3 ADD MSTORE PUSH1 0x64 ADD PUSH2 0x65A JUMP JUMPDEST SWAP4 SWAP3 POP POP POP JUMP JUMPDEST PUSH1 0x40 MLOAD DUP1 PUSH2 0x140 ADD PUSH1 0x40 MSTORE DUP1 PUSH1 0x0 DUP2 MSTORE PUSH1 0x20 ADD PUSH1 0x0 PUSH1 0x1 PUSH1 0x1 PUSH1 0xA0 SHL SUB AND DUP2 MSTORE PUSH1 0x20 ADD PUSH1 0x60 DUP2 MSTORE PUSH1 0x20 ADD PUSH1 0x0 DUP2 MSTORE PUSH1 0x20 ADD PUSH1 0x0 DUP2 MSTORE PUSH1 0x20 ADD PUSH1 0x0 DUP2 MSTORE PUSH1 0x20 ADD PUSH1 0x0 ISZERO ISZERO DUP2 MSTORE PUSH1 0x20 ADD PUSH1 0x0 PUSH1 0x5 DUP2 GT ISZERO PUSH2 0x1F0F JUMPI PUSH2 0x1F0F PUSH2 0x1F8C JUMP JUMPDEST DUP2 MSTORE PUSH1 0x20 ADD PUSH1 0x0 DUP2 MSTORE PUSH1 0x20 ADD PUSH1 0x0 DUP2 MSTORE POP SWAP1 JUMP JUMPDEST PUSH1 0x0 PUSH1 0x20 DUP3 DUP5 SUB SLT ISZERO PUSH2 0x1F35 JUMPI PUSH1 0x0 DUP1 REVERT JUMPDEST POP CALLDATALOAD SWAP2 SWAP1 POP JUMP JUMPDEST PUSH1 0x0 JUMPDEST DUP4 DUP2 LT ISZERO PUSH2 0x1F57 JUMPI DUP2 DUP2 ADD MLOAD DUP4 DUP3 ADD MSTORE PUSH1 0x20 ADD PUSH2 0x1F3F JUMP JUMPDEST POP POP PUSH1 0x0 SWAP2 ADD MSTORE JUMP JUMPDEST PUSH1 0x0 DUP2 MLOAD DUP1 DUP5 MSTORE PUSH2 0x1F78 DUP2 PUSH1 0x20 DUP7 ADD PUSH1 0x20 DUP7 ADD PUSH2 0x1F3C JUMP JUMPDEST PUSH1 0x1F ADD PUSH1 0x1F NOT AND SWAP3 SWAP1 SWAP3 ADD PUSH1 0x20 ADD SWAP3 SWAP2 POP POP JUMP JUMPDEST PUSH4 0x4E487B71 PUSH1 0xE0 SHL PUSH1 0x0 MSTORE PUSH1 0x21 PUSH1 0x4 MSTORE PUSH1 0x24 PUSH1 0x0 REVERT JUMPDEST PUSH1 0x6 DUP2 LT PUSH2 0x1FC0 JUMPI PUSH4 0x4E487B71 PUSH1 0xE0 SHL PUSH1 0x0 MSTORE PUSH1 0x21 PUSH1 0x4 MSTORE PUSH1 0x24 PUSH1 0x0 REVERT JUMPDEST SWAP1 MSTORE JUMP JUMPDEST DUP11 DUP2 MSTORE PUSH1 0x1 PUSH1 0x1 PUSH1 0xA0 SHL SUB DUP11 AND PUSH1 0x20 DUP3 ADD MSTORE PUSH2 0x140 PUSH1 0x40 DUP3 ADD DUP2 SWAP1 MSTORE PUSH1 0x0 SWAP1 PUSH2 0x1FEF DUP4 DUP3 ADD DUP13 PUSH2 0x1F60 JUMP JUMPDEST SWAP2 POP POP DUP9 PUSH1 0x60 DUP4 ADD MSTORE DUP8 PUSH1 0x80 DUP4 ADD MSTORE DUP7 PUSH1 0xA0 DUP4 ADD MSTORE DUP6 ISZERO ISZERO PUSH1 0xC0 DUP4 ADD MSTORE PUSH2 0x2019 PUSH1 0xE0 DUP4 ADD DUP7 PUSH2 0x1FA2 JUMP JUMPDEST PUSH2 0x100 DUP3 ADD SWAP4 SWAP1 SWAP4 MSTORE PUSH2 0x120 ADD MSTORE SWAP9 SWAP8 POP POP POP POP POP POP POP POP JUMP JUMPDEST PUSH1 0x0 PUSH1 0x20 DUP3 DUP5 SUB SLT ISZERO PUSH2 0x2045 JUMPI PUSH1 0x0 DUP1 REVERT JUMPDEST DUP2 CALLDATALOAD PUSH1 0x1 PUSH1 0x1 PUSH1 0xE0 SHL SUB NOT DUP2 AND DUP2 EQ PUSH2 0x1EAD JUMPI PUSH1 0x0 DUP1 REVERT JUMPDEST DUP1 CALLDATALOAD PUSH1 0x1 PUSH1 0x1 PUSH1 0xA0 SHL SUB DUP2 AND DUP2 EQ PUSH2 0x2074 JUMPI PUSH1 0x0 DUP1 REVERT JUMPDEST SWAP2 SWAP1 POP JUMP JUMPDEST PUSH1 0x0 DUP1 PUSH1 0x40 DUP4 DUP6 SUB SLT ISZERO PUSH2 0x208C JUMPI PUSH1 0x0 DUP1 REVERT JUMPDEST DUP3 CALLDATALOAD SWAP2 POP PUSH2 0x209C PUSH1 0x20 DUP5 ADD PUSH2 0x205D JUMP JUMPDEST SWAP1 POP SWAP3 POP SWAP3 SWAP1 POP JUMP JUMPDEST PUSH1 0x0 DUP1 PUSH1 0x40 DUP4 DUP6 SUB SLT ISZERO PUSH2 0x20B8 JUMPI PUSH1 0x0 DUP1 REVERT JUMPDEST PUSH2 0x20C1 DUP4 PUSH2 0x205D JUMP JUMPDEST SWAP5 PUSH1 0x20 SWAP4 SWAP1 SWAP4 ADD CALLDATALOAD SWAP4 POP POP POP JUMP JUMPDEST PUSH4 0x4E487B71 PUSH1 0xE0 SHL PUSH1 0x0 MSTORE PUSH1 0x41 PUSH1 0x4 MSTORE PUSH1 0x24 PUSH1 0x0 REVERT JUMPDEST PUSH1 0x0 DUP3 PUSH1 0x1F DUP4 ADD SLT PUSH2 0x20F6 JUMPI PUSH1 0x0 DUP1 REVERT JUMPDEST DUP2 CALLDATALOAD PUSH8 0xFFFFFFFFFFFFFFFF DUP1 DUP3 GT ISZERO PUSH2 0x2111 JUMPI PUSH2 0x2111 PUSH2 0x20CF JUMP JUMPDEST PUSH1 0x40 MLOAD PUSH1 0x1F DUP4 ADD PUSH1 0x1F NOT SWAP1 DUP2 AND PUSH1 0x3F ADD AND DUP2 ADD SWAP1 DUP3 DUP3 GT DUP2 DUP4 LT OR ISZERO PUSH2 0x2139 JUMPI PUSH2 0x2139 PUSH2 0x20CF JUMP JUMPDEST DUP2 PUSH1 0x40 MSTORE DUP4 DUP2 MSTORE DUP7 PUSH1 0x20 DUP6 DUP9 ADD ADD GT ISZERO PUSH2 0x2152 JUMPI PUSH1 0x0 DUP1 REVERT JUMPDEST DUP4 PUSH1 0x20 DUP8 ADD PUSH1 0x20 DUP4 ADD CALLDATACOPY PUSH1 0x0 PUSH1 0x20 DUP6 DUP4 ADD ADD MSTORE DUP1 SWAP5 POP POP POP POP POP SWAP3 SWAP2 POP POP JUMP JUMPDEST DUP1 CALLDATALOAD DUP1 ISZERO ISZERO DUP2 EQ PUSH2 0x2074 JUMPI PUSH1 0x0 DUP1 REVERT JUMPDEST PUSH1 0x0 DUP1 PUSH1 0x0 DUP1 PUSH1 0x80 DUP6 DUP8 SUB SLT ISZERO PUSH2 0x2198 JUMPI PUSH1 0x0 DUP1 REVERT JUMPDEST DUP5 CALLDATALOAD PUSH8 0xFFFFFFFFFFFFFFFF DUP2 GT ISZERO PUSH2 0x21AF JUMPI PUSH1 0x0 DUP1 REVERT JUMPDEST PUSH2 0x21BB DUP8 DUP3 DUP9 ADD PUSH2 0x20E5 JUMP JUMPDEST SWAP5 POP POP PUSH1 0x20 DUP6 ADD CALLDATALOAD SWAP3 POP PUSH1 0x40 DUP6 ADD CALLDATALOAD SWAP2 POP PUSH2 0x21D8 PUSH1 0x60 DUP7 ADD PUSH2 0x2172 JUMP JUMPDEST SWAP1 POP SWAP3 SWAP6 SWAP2 SWAP5 POP SWAP3 POP JUMP JUMPDEST PUSH1 0x0 DUP1 PUSH1 0x40 DUP4 DUP6 SUB SLT ISZERO PUSH2 0x21F6 JUMPI PUSH1 0x0 DUP1 REVERT JUMPDEST POP POP DUP1 CALLDATALOAD SWAP3 PUSH1 0x20 SWAP1 SWAP2 ADD CALLDATALOAD SWAP2 POP JUMP JUMPDEST PUSH1 0x0 DUP1 PUSH1 0x0 PUSH1 0x60 DUP5 DUP7 SUB SLT ISZERO PUSH2 0x221A JUMPI PUSH1 0x0 DUP1 REVERT JUMPDEST DUP4 CALLDATALOAD SWAP3 POP PUSH2 0x222A PUSH1 0x20 DUP6 ADD PUSH2 0x2172 JUMP JUMPDEST SWAP2 POP PUSH1 0x40 DUP5 ADD CALLDATALOAD PUSH8 0xFFFFFFFFFFFFFFFF DUP2 GT ISZERO PUSH2 0x2246 JUMPI PUSH1 0x0 DUP1 REVERT JUMPDEST PUSH2 0x2252 DUP7 DUP3 DUP8 ADD PUSH2 0x20E5 JUMP JUMPDEST SWAP2 POP POP SWAP3 POP SWAP3 POP SWAP3 JUMP JUMPDEST PUSH1 0x0 PUSH2 0x140 DUP3 MLOAD DUP5 MSTORE PUSH1 0x20 DUP4 ADD MLOAD PUSH2 0x227F PUSH1 0x20 DUP7 ADD DUP3 PUSH1 0x1 PUSH1 0x1 PUSH1 0xA0 SHL SUB AND SWAP1 MSTORE JUMP JUMPDEST POP PUSH1 0x40 DUP4 ADD MLOAD DUP2 PUSH1 0x40 DUP7 ADD MSTORE PUSH2 0x2297 DUP3 DUP7 ADD DUP3 PUSH2 0x1F60 JUMP JUMPDEST SWAP2 POP POP PUSH1 0x60 DUP4 ADD MLOAD PUSH1 0x60 DUP6 ADD MSTORE PUSH1 0x80 DUP4 ADD MLOAD PUSH1 0x80 DUP6 ADD MSTORE PUSH1 0xA0 DUP4 ADD MLOAD PUSH1 0xA0 DUP6 ADD MSTORE PUSH1 0xC0 DUP4 ADD MLOAD PUSH2 0x22CB PUSH1 0xC0 DUP7 ADD DUP3 ISZERO ISZERO SWAP1 MSTORE JUMP JUMPDEST POP PUSH1 0xE0 DUP4 ADD MLOAD PUSH2 0x22DE PUSH1 0xE0 DUP7 ADD DUP3 PUSH2 0x1FA2 JUMP JUMPDEST POP PUSH2 0x100 DUP4 DUP2 ADD MLOAD SWAP1 DUP6 ADD MSTORE PUSH2 0x120 SWAP3 DUP4 ADD MLOAD SWAP3 SWAP1 SWAP4 ADD SWAP2 SWAP1 SWAP2 MSTORE POP SWAP1 JUMP JUMPDEST PUSH1 0x20 DUP2 MSTORE PUSH1 0x0 PUSH2 0x1EAD PUSH1 0x20 DUP4 ADD DUP5 PUSH2 0x225C JUMP JUMPDEST PUSH1 0x0 DUP1 PUSH1 0x40 DUP4 DUP6 SUB SLT ISZERO PUSH2 0x2323 JUMPI PUSH1 0x0 DUP1 REVERT JUMPDEST DUP3 CALLDATALOAD SWAP2 POP PUSH2 0x209C PUSH1 0x20 DUP5 ADD PUSH2 0x2172 JUMP JUMPDEST PUSH1 0x0 PUSH1 0x20 DUP1 DUP4 ADD DUP2 DUP5 MSTORE DUP1 DUP6 MLOAD DUP1 DUP4 MSTORE PUSH1 0x40 DUP7 ADD SWAP2 POP PUSH1 0x40 DUP2 PUSH1 0x5 SHL DUP8 ADD ADD SWAP3 POP DUP4 DUP8 ADD PUSH1 0x0 JUMPDEST DUP3 DUP2 LT ISZERO PUSH2 0x2388 JUMPI PUSH1 0x3F NOT DUP9 DUP7 SUB ADD DUP5 MSTORE PUSH2 0x2376 DUP6 DUP4 MLOAD PUSH2 0x225C JUMP JUMPDEST SWAP5 POP SWAP3 DUP6 ADD SWAP3 SWAP1 DUP6 ADD SWAP1 PUSH1 0x1 ADD PUSH2 0x235A JUMP JUMPDEST POP SWAP3 SWAP8 SWAP7 POP POP POP POP POP POP POP JUMP JUMPDEST PUSH1 0x1 DUP2 DUP2 SHR SWAP1 DUP3 AND DUP1 PUSH2 0x23A9 JUMPI PUSH1 0x7F DUP3 AND SWAP2 POP JUMPDEST PUSH1 0x20 DUP3 LT DUP2 SUB PUSH2 0x1891 JUMPI PUSH4 0x4E487B71 PUSH1 0xE0 SHL PUSH1 0x0 MSTORE PUSH1 0x22 PUSH1 0x4 MSTORE PUSH1 0x24 PUSH1 0x0 REVERT JUMPDEST PUSH1 0x20 DUP1 DUP3 MSTORE PUSH1 0x15 SWAP1 DUP3 ADD MSTORE PUSH21 0x50726F70756573746120696E6578697374656E7465 PUSH1 0x58 SHL PUSH1 0x40 DUP3 ADD MSTORE PUSH1 0x60 ADD SWAP1 JUMP JUMPDEST PUSH1 0x20 DUP1 DUP3 MSTORE PUSH1 0x13 SWAP1 DUP3 ADD MSTORE PUSH19 0x50726F707565737461206E6F20616374697661 PUSH1 0x68 SHL PUSH1 0x40 DUP3 ADD MSTORE PUSH1 0x60 ADD SWAP1 JUMP JUMPDEST PUSH4 0x4E487B71 PUSH1 0xE0 SHL PUSH1 0x0 MSTORE PUSH1 0x11 PUSH1 0x4 MSTORE PUSH1 0x24 PUSH1 0x0 REVERT JUMPDEST DUP1 DUP3 ADD DUP1 DUP3 GT ISZERO PUSH2 0x605 JUMPI PUSH2 0x605 PUSH2 0x2425 JUMP JUMPDEST PUSH1 0x0 PUSH1 0x1 DUP3 ADD PUSH2 0x2460 JUMPI PUSH2 0x2460 PUSH2 0x2425 JUMP JUMPDEST POP PUSH1 0x1 ADD SWAP1 JUMP JUMPDEST PUSH1 0x1F DUP3 GT ISZERO PUSH2 0xA90 JUMPI PUSH1 0x0 DUP2 DUP2 MSTORE PUSH1 0x20 DUP2 KECCAK256 PUSH1 0x1F DUP6 ADD PUSH1 0x5 SHR DUP2 ADD PUSH1 0x20 DUP7 LT ISZERO PUSH2 0x248E JUMPI POP DUP1 JUMPDEST PUSH1 0x1F DUP6 ADD PUSH1 0x5 SHR DUP3 ADD SWAP2 POP JUMPDEST DUP2 DUP2 LT ISZERO PUSH2 0x24AD JUMPI DUP3 DUP2 SSTORE PUSH1 0x1 ADD PUSH2 0x249A JUMP JUMPDEST POP POP POP POP POP POP JUMP JUMPDEST DUP2 MLOAD PUSH8 0xFFFFFFFFFFFFFFFF DUP2 GT ISZERO PUSH2 0x24CF JUMPI PUSH2 0x24CF PUSH2 0x20CF JUMP JUMPDEST PUSH2 0x24E3 DUP2 PUSH2 0x24DD DUP5 SLOAD PUSH2 0x2395 JUMP JUMPDEST DUP5 PUSH2 0x2467 JUMP JUMPDEST PUSH1 0x20 DUP1 PUSH1 0x1F DUP4 GT PUSH1 0x1 DUP2 EQ PUSH2 0x2518 JUMPI PUSH1 0x0 DUP5 ISZERO PUSH2 0x2500 JUMPI POP DUP6 DUP4 ADD MLOAD JUMPDEST PUSH1 0x0 NOT PUSH1 0x3 DUP7 SWAP1 SHL SHR NOT AND PUSH1 0x1 DUP6 SWAP1 SHL OR DUP6 SSTORE PUSH2 0x24AD JUMP JUMPDEST PUSH1 0x0 DUP6 DUP2 MSTORE PUSH1 0x20 DUP2 KECCAK256 PUSH1 0x1F NOT DUP7 AND SWAP2 JUMPDEST DUP3 DUP2 LT ISZERO PUSH2 0x2547 JUMPI DUP9 DUP7 ADD MLOAD DUP3 SSTORE SWAP5 DUP5 ADD SWAP5 PUSH1 0x1 SWAP1 SWAP2 ADD SWAP1 DUP5 ADD PUSH2 0x2528 JUMP JUMPDEST POP DUP6 DUP3 LT ISZERO PUSH2 0x2565 JUMPI DUP8 DUP6 ADD MLOAD PUSH1 0x0 NOT PUSH1 0x3 DUP9 SWAP1 SHL PUSH1 0xF8 AND SHR NOT AND DUP2 SSTORE JUMPDEST POP POP POP POP POP PUSH1 0x1 SWAP1 DUP2 SHL ADD SWAP1 SSTORE POP JUMP JUMPDEST PUSH1 0x20 DUP2 MSTORE PUSH1 0x0 PUSH2 0x1EAD PUSH1 0x20 DUP4 ADD DUP5 PUSH2 0x1F60 JUMP JUMPDEST DUP3 ISZERO ISZERO PUSH1 0xF8 SHL DUP2 MSTORE PUSH1 0x0 DUP3 MLOAD PUSH2 0x25A5 DUP2 PUSH1 0x1 DUP6 ADD PUSH1 0x20 DUP8 ADD PUSH2 0x1F3C JUMP JUMPDEST SWAP2 SWAP1 SWAP2 ADD PUSH1 0x1 ADD SWAP4 SWAP3 POP POP POP JUMP JUMPDEST PUSH4 0x4E487B71 PUSH1 0xE0 SHL PUSH1 0x0 MSTORE PUSH1 0x32 PUSH1 0x4 MSTORE PUSH1 0x24 PUSH1 0x0 REVERT JUMPDEST PUSH32 0x416363657373436F6E74726F6C3A206163636F756E7420000000000000000000 DUP2 MSTORE PUSH1 0x0 DUP4 MLOAD PUSH2 0x2601 DUP2 PUSH1 0x17 DUP6 ADD PUSH1 0x20 DUP9 ADD PUSH2 0x1F3C JUMP JUMPDEST PUSH17 0x1034B99036B4B9B9B4B733903937B6329 PUSH1 0x7D SHL PUSH1 0x17 SWAP2 DUP5 ADD SWAP2 DUP3 ADD MSTORE DUP4 MLOAD PUSH2 0x2632 DUP2 PUSH1 0x28 DUP5 ADD PUSH1 0x20 DUP9 ADD PUSH2 0x1F3C JUMP JUMPDEST ADD PUSH1 0x28 ADD SWAP5 SWAP4 POP POP POP POP JUMP JUMPDEST DUP1 DUP3 MUL DUP2 ISZERO DUP3 DUP3 DIV DUP5 EQ OR PUSH2 0x605 JUMPI PUSH2 0x605 PUSH2 0x2425 JUMP JUMPDEST PUSH1 0x0 DUP2 PUSH2 0x2664 JUMPI PUSH2 0x2664 PUSH2 0x2425 JUMP JUMPDEST POP PUSH1 0x0 NOT ADD SWAP1 JUMP INVALID PUSH18 0x840DC4906352362B0CDAF79870196C8E42AC 0xAF 0xAD 0xE7 0x2D 0x5D GAS PUSH14 0x59291253CEB172C3EEC1760BF699 CHAINID PUSH3 0x5C2D4F 0xB8 0xE4 0x4E 0x2C DUP1 PUSH4 0x45041960 0xB4 CALLVALUE PUSH8 0x4FB9AB3976CFA264 PUSH10 0x7066735822122021CBED DIV DUP4 0xB0 0xAA 0xED CALLER SWAP14 REVERT DUP13 0xB3 DUP5 SELFDESTRUCT 0xF9 0xD2 ADDMOD PUSH20 0xB1AFDA753875DAC238790B348764736F6C634300 ADDMOD EQ STOP CALLER "},"methodIdentifiers":{"AUDITOR_ROLE()":"6e1d616e","CREATOR_ROLE()":"8aeda25a","DEFAULT_ADMIN_ROLE()":"a217fddf","GOVERNANCE_ROLE()":"f36c8f5c","VOTER_ROLE()":"a94015c8","assignRole(address,bytes32)":"1d9486de","cancelProposal(uint256)":"e0a8f6f5","closeProposal(uint256)":"0386a016","commitVote(uint256,bytes32)":"9da69180","createProposal(string,uint256,uint256,bool)":"435d9a1f","executeProposal(uint256)":"0d61b519","getAllProposals()":"cceb68f5","getProposal(uint256)":"c7f758a8","getRoleAdmin(bytes32)":"248a9ca3","grantRole(bytes32,address)":"2f2ff15d","hasRevealed(uint256,address)":"16b5551d","hasRole(bytes32,address)":"91d14854","hasVoted(uint256,address)":"43859632","isRevealPhase(uint256)":"a1c6e1ec","pause()":"8456cb59","paused()":"5c975abb","proposalCount()":"da35c664","proposals(uint256)":"013cf08b","renounceRole(bytes32,address)":"36568abe","revealVote(uint256,bool,string)":"a00724ff","revokeRole(bytes32,address)":"d547741f","startRevealPhase(uint256)":"a8d93dea","supportsInterface(bytes4)":"01ffc9a7","unpause()":"3f4ba83a","vote(uint256,bool)":"c9d27afe","voteCommits(uint256,address)":"f280b5e5"}}}}}